:020000040800F2
:10000000C00F00202D020008310200083302000852
:10001000350200083702000839020008000000001D
:100020000000000000000000000000003B0200088B
:100030003D020008000000003F02000841020008E5
:100040001974000843020008430200084302000834
:10005000430200084302000843020008430200086C
:10006000430200084302000843020008430200085C
:10007000430200084302000843020008430200084C
:10008000430200084302000843020008430200083C
:10009000857000084302000843020008430200087C
:1000A000430200084302000843020008430200081C
:1000B0004302000843020008956C00084302000850
:1000C00043020008430200084302000843020008FC
:1000D00043020008216D00084302000843020008A3
:1000E0004302000843020008596E0008430200085A
:1000F00043020008430200084302000843020008CC
:1001000043020008430200084302000843020008BB
:1001100043020008430200084302000843020008AB
:10012000430200084302000843020008430200089B
:1001300000F002F800F06BF80AA090E8000C82448E
:100140008344AAF10107DA4501D100F060F8AFF26B
:10015000090EBAE80F0013F0010F18BFFB1A43F0A5
:1001600001031847D8AF0000F8AF00000A444FF071
:10017000000C10F8013B13F0070408BF10F8014B06
:100180001D1108BF10F8015B641E05D010F8016B4B
:10019000641E01F8016BF9D113F0080F1EBF10F8AF
:1001A000014BAD1C0C1B09D16D1E58BF01F801CBD2
:1001B000FAD505E014F8016B01F8016B6D1EF9D555
:1001C0009142D6D37047000000230024002500266A
:1001D000103A28BF78C1FBD8520728BF30C148BFAA
:1001E0000B607047642900F09B80752900F09880AF
:1001F000782900F0FC80632900F05C82732900F00C
:100200006182002070471FB51FBD10B510BD00F002
:1002100077FA1146FFF7F7FF07F092F900F095FA29
:1002200003B4FFF7F2FF03BC07F01DF908480047CD
:10023000FEE7FEE7FEE7FEE7FEE7FEE7FEE7FEE796
:10024000FEE7FEE703480449044A054B70470000F7
:1002500031010008C0090020C00F0020C00B0020A1
:10026000C00B0020704700000FB4044910B503AA6A
:10027000029800F02BFA10BC5DF814FB040000207B
:1002800070B5044685690068C10601D5302600E0D6
:100290002026C00707D070BDD4E901213046904721
:1002A000206A401C20626D1EF6D570BD70B50446F4
:1002B00085690078C00707D170BDD4E901212020ED
:1002C0009047206A401C20626D1EF6D570BD70B547
:1002D0000C460546012A05D02878800600D5EA6933
:1002E000002302E0012305E05B1C934202D2E05CA4
:1002F0000028F9D1A869E618C01AA861286A18442C
:1003000028622846FFF7BCFF04E0D5E9012114F874
:10031000010B9047B442F8D32846FFF7C7FF70BDE2
:100320002DE9F0410646002410687529314616A5CE
:1003300010D0AFF30080002802DA404213A507E096
:1003400031688A0701D512A502E0490704D511A535
:10035000012401E0AFF3008000210A2206F1240706
:1003600009E0B0FBF2FCB0FBF2F302FB1C00303002
:1003700078541846491C0028F3D123462A463046B3
:10038000BDE8F04100F01AB9000000002D000000A7
:100390002B00000020000000F0B40D460188090584
:1003A00002D5214C7C4402E01F4C7C440E340021D9
:1003B00000F1240608E002F00F071209E75D42EAA7
:1003C00003721B097754491C52EA0307F3D10278E0
:1003D0000023120704D5702D06D009B10223113471
:1003E0002246F0BC00F0EAB801231034F8E770B5FB
:1003F00004460D4621461068AFF3008002462946A8
:100400002046BDE870400023C6E7D21D22F0070356
:10041000D3E90023C0E70368126843F020030360B8
:100420000823C3610023B7E765AC00002DE9F05F46
:10043000894604464FF0000ADFF874B1FB44C0F867
:1004400020A02046E1688847002874D0252806D0DF
:10045000D4E901219047206A401C2062F1E7002680
:100460005F462046E16888472028054607DB312D96
:1004700005D2781910F8200C08B10643F1E7B0074F
:1004800001D526F00406C4F81CA00027C4F818A063
:100490002A2D09D0284606F0DFFF38B304EB870881
:1004A000303DC8F8185019E059F8041B204604EBF9
:1004B00087029161E1688847012F054618D1E069FC
:1004C000002820DA26F020061DE0D8F8180000EBFE
:1004D000800005EB40003038C8F818002046E1687D
:1004E0008847054606F0B8FF0028EED1012F0AD054
:1004F0002E2D08D12046E16888477F1C0546022F33
:1005000046F02006C4DBA069002803DA404246F02A
:100510000106A061F00701D026F010066C2D0BD06B
:10052000682D09D04C2D39D06A2D35D0742D35D099
:100530007A2D33D016E038E0E1682F462046884710
:10054000B842054609D16C2F26D04FF48060E1688F
:10055000064320468847054604E06C2F1AD04FF426
:10056000807006430DB3A5F14100192802D820354B
:1005700046F400664A462946204626604E46FFF766
:1005800031FE80B101280BD0F61D26F0070000F1E6
:10059000080956E74020E4E78020D8E70020D6E7A6
:1005A00006F104094DE7284652E7206ABDE8F09FAE
:1005B000F5AB000070477047704770472DE9F04772
:1005C0000D4699469246044600F1240801688806C3
:1005D00004D5E06921F01001216000E00120A8426B
:1005E00001DD471B00E00027A1697A1902EB090031
:1005F000081AA0612078C00602D42046FFF740FE0A
:10060000002608E0D4E901211AF806009047206A84
:10061000401C761C20624E45F4DB2078C0060AD5CB
:100620002046FFF72DFE06E0D4E901213020904757
:10063000206A401C2062381EA7F10107F4DC07E0A5
:10064000D4E9012118F805009047206A401C206277
:10065000281EA5F10105F3DC2046FFF727FE2078D0
:10066000000602D50220BDE8F0870120FBE700006C
:1006700001694A1C02610878704700B58FB0CDE966
:1006800001310021059105497944CDE90310114656
:100690006846FFF7CBFE0FB000BD0000E5FFFFFF8F
:1006A00010B5436913B1AFF3008001E0FFF70FFE0F
:1006B000012010BD127800F124010A7000224A7056
:1006C0000122EDE711684FF0FF32E9E7074B70B503
:1006D0000D467B44FFF7D1FF0446284600F008F89A
:1006E00010B14FF0FF3070BD204670BD4F6E00005E
:1006F000007B00F0800070470048704760090020D0
:100700007546FFF7F9FFAE4605006946534620F0EF
:100710000700854618B020B5FFF794FDBDE82040DE
:100720004FF000064FF000074FF000084FF0000BAD
:1007300021F00701AC46ACE8C009ACE8C009ACE860
:10074000C009ACE8C0098D46704710B50446AFF348
:1007500000802046BDE81040FFF762BD0146CAB2E6
:100760000B1243EA0220704708B50020009022E1F6
:100770009748008800F00F009649087008460078F6
:1007800000287CD194480068944908800846008875
:1007900000F03000924908809048008800F44050F2
:1007A0008E4908808C4909684BF6BF7201EA020045
:1007B00080F4005080F0200040F4004141F08001BE
:1007C000854A11608248008800F0100090BB1046F6
:1007D000006848F60F7108401146086000F034FCCC
:1007E0007D4909684BF6BF7201EA02007B4909881E
:1007F00001F4805109B180F480507849098801F4EE
:10080000005109B180F400507549098801F01001C8
:1008100009B180F010007249098801F0200109B186
:1008200080F0200081B241F4004141F080016A4A29
:10083000116008BDFFE76848006880B20090BDF80D
:10084000000000F40060B0B363480068C0F30E001D
:1008500048F68F7108406049086005F0DFFE5E4988
:1008600009684BF6BF7201EA02005C49098801F48D
:10087000805109B180F480505849098800E056E061
:1008800001F4005109B180F400505549098801F084
:10089000100109B180F010005149098801F02001D0
:1008A00009B180F0200081B241F4004141F08001A3
:1008B000494A1160BDE7FFE7BDF8000000F40040C1
:1008C000002878D044480068C0F30E0048F68F71C5
:1008D00008404149086005F0E7FB3F4909684BF6CD
:1008E000BF7201EA02003D49098801F4805109B153
:1008F00080F480503949098801F4005109B180F42D
:1009000000503749098801F0100109B180F010004A
:100910003349098801F0200109B180F0200081B23B
:1009200041F4004141F080012B4A116081E72948E0
:1009300000782C4901EB8000D0F8000C80B20090C8
:10094000BDF8000000F40040C0B12248007801EB7F
:100950008000D0F8000CC0F30E0048F68F710840FC
:100960001C4909781F4A02EB8101C1F8000C1949A2
:100970000978491E1C4A52F821008047BDF8000042
:1009800000F08000B8B113480078164901EB8000F0
:10099000D0F8000C48F60F7108400E490978114A4A
:1009A00002EB8101C1F8000C0A490978491E0F4A7F
:1009B00052F82100804708484430006880B204495A
:1009C000088000F4004000287FF4D2AE00BF30E77A
:1009D0007801002060020020005C004074020020CA
:1009E0007602002000500040A00100208401002079
:1009F0000B4A02EB8001D1F8001C01F4804171B177
:100A000002EB8001D1F8001C48F68F7211404CF2C5
:100A100080021143024B03EB8002C2F8001C7047B6
:100A2000005000400B4A02EB8001D1F8001C01F09D
:100A3000400171B102EB8001D1F8001C48F68F72C1
:100A4000114048F2C0021143024B03EB8002C2F88E
:100A5000001C704700500040084A02EB8001D1F8AA
:100A6000001C48F68F62114048F280021143034B8C
:100A700003EB8002C2F8001C7047000000500040E9
:100A80002DE9F0472848006800F110052E88264817
:100A90000068077AD6B9042F18D1244800780128B5
:100AA0000FD100212248006880B2801C214A42F800
:100AB000101030202049088000BF00201B4908701A
:100AC00003E0072710201C49088027E0AC88A642D5
:100AD00001D8042000E002200746B44200D9344681
:100AE000A0B2A96888478046002000F065FA8146D8
:100AF000A2B24946404606F033FBA1B2002005F001
:100B000033FD2888001B28806888204468803020B6
:100B10000949088000020949088000BF02490968A4
:100B20000F72BDE8F0870000640200205E02002022
:100B3000505C0040006000407602002074020020FB
:100B40002DE9F0412848006800F110042688A068CB
:100B5000C0B1BEB1A588B54200D93546A8B2A168DA
:100B6000884707462088401B208060882844608092
:100B7000002000F0FFF98046AAB24146384605F051
:100B8000BBFA00BF208850B14FF44050174908808D
:100B90000021084605F0E8FC30201549088020882F
:100BA000A188884204DB03200F490968087218E015
:100BB0002088002804DD05200B490968087210E030
:100BC000208870B906200849096808720021094880
:100BD000006880B2801C084A42F810103020044996
:100BE0000880BDE8F081000064020020740200204B
:100BF00076020020505C0040006000402DE9F84F74
:100C00009B48006845780027BA46062D1BD19848B6
:100C10000068007800F07F00002813D1944909682B
:100C20008878012803D193490968CF690AE002282E
:100C300003D1904909680F6A04E0032802D18D4965
:100C400009684F6A94E0002D64D1894800684088A3
:100C500000285FD186480068C08802285AD184489D
:100C600000680079002855D181480068007800F0BC
:100C70007F0028B97E480068808808B97E4F77E0F9
:100C80007B480068007800F07F00012810D1784987
:100C900009684879774909688A69002190470028DE
:100CA00066D173480068807A002861D0724F5FE097
:100CB0006F480068007800F07F00022858D16C4827
:100CC0000068407900F00F0669480068407900F03C
:100CD000700967480068407900F0800038B16749C2
:100CE00001EB8600D0F8000C00F0300806E0634904
:100CF00001EB8600D0F8000C00F440586048007802
:100D0000B04235D9B9F1000F32D1B8F1000F2FD070
:100D1000594F2DE0082D07D155480068007800F0A4
:100D20007F0028BB574F23E00A2D21D1504800688F
:100D3000007800F07F0001281AD14D480068807AC1
:100D4000B0B14B480068408890B9494800680079C4
:100D500070B947480068C088012809D1444909682A
:100D60004879444909688A690021904700B9464F8B
:100D700057B13F480068A0F812A03D48006887615D
:100D80000020B84700240FE0394A12685078394AE9
:100D90001268116988470446032C05D1092034499B
:100DA00009680872BDE8F88F31480068008A4FF67C
:100DB000FF71884204D109202D4909680872F1E7C2
:100DC000022C03D02A480068008A20B9082028494C
:100DD00009680872E6E726480068007800F080009D
:100DE000E0B323480068C088009021480068008A6A
:100DF0000099884204D91E4900980968088223E0B6
:100E00001B480068008A1A490968C98888421BDAA9
:100E100017480068008A1749096891F82C10884221
:100E200003DA0020194908700EE011480068008AB2
:100E30001049096891F82C1090FBF1F201FB1200A7
:100E400010B90120114908700A48006890F82C1068
:100E5000074800688182FFF713FE07E0FFE70320E1
:100E600003490968087200030949088000BF99E72F
:100E70006402002068020020BD68000800500040A5
:100E8000C801002041680008916800085E02002047
:100E90007402002070B52248B0F802042049B1F86D
:100EA0000014884200D170BD1D48B0F802041C49EE
:100EB000B1F80014884208DA1948B0F8000418495B
:100EC000B1F80214401A84B205E01548B0F80204E3
:100ED000C0F5806084B2402C00DD40241048B0F89A
:100EE0000254B0F8020420440D49A1F80204084657
:100EF000B0F80204B0F5806F02DB0020A1F8020414
:100F0000074948192246C02106F02AF92146012046
:100F100005F02AFB012005F055FB00BFC3E70000E8
:100F20004E03002010B50649032006F0C1F884B234
:100F3000E1B2034806F0D4F8032005F0EBFA10BD47
:100F4000E208002010B503A0FFF78EF9032008493E
:100F5000086010BD75736220656E746572206C6FD9
:100F60007720706F776572206D6F64650D0A0000E1
:100F70005002002001460548006880B200EBC10025
:100F8000001D034A32F8100080B27047505C0040E8
:100F90000060004001460648006880B200EBC100D6
:100FA000801D044A32F81000C0F3090070470000A9
:100FB000505C00400060004001460548006880B277
:100FC00000EBC100034A32F8100080B27047000005
:100FD000505C00400060004070B50A480468001D85
:100FE0000568001D0668344454B1082206492046AD
:100FF00000F062F8042204491031284600F05CF841
:1010000070BD0000E8F7FF1F5C0100200C488069FC
:1010100040F008000A4988610A48006820F07F40D3
:10102000084908600846006840F04C5008600548D0
:101030000C30006840F0C00002490C310860704775
:1010400000100240000C014010B518480068047AF6
:10105000022C01D0042C05D1FFF712FD13480068C3
:10106000047A1CE0062C19D1104800684078052845
:101070000ED10E480068007800F07F0040B90B499F
:101080000968C87805F0C6F909490968086A8047FF
:101090000849096888688047082400E00824034953
:1010A00009680C7205F03CF810BD000064020020D5
:1010B000700200206802002030B50B46002100BFFE
:1010C00016E00A24B4EB107F05D9302404EB107429
:1010D00003F8114005E0412404EB10740A3C03F8C6
:1010E0001140000100254C00641C1D554C1CE1B250
:1010F0009142E6DB30BD000001464906084A92698C
:1011000042F00102064B9A61064A526822F0E06200
:10111000044B5A601A4652680A435A6070470000EE
:1011200000100240000001401548806940F00400B2
:10113000134988610846806940F040008861114881
:10114000006820F00F000F4908600846006840F072
:10115000080008600C4800680C4908400A4908600B
:10116000084600680A4908430749086006480C30E9
:10117000006840F01C0004490C3108607047000012
:10118000001002400008014000180140FF00F0FF7D
:101190000088080070B50446002617480588408876
:1011A00045431548808846F60401884216D1124806
:1011B0008079012812D100200F4988712A204881A6
:1011C0002B2088810021084603F0C0FF01200A4936
:1011D00088712B2048812A20888103E0002108465D
:1011E00003F0B4FF04F0A4F9002602E003480480F1
:1011F000761CAE42FAD370BD400300200008006C9C
:1012000010B50446002C66D16C498871F020088026
:101210004FF4A07048800846808849F241318842E6
:101220000BD06648808846F60401884205D06348A2
:10123000808845F2103188421AD12C205F490881FC
:101240002A2048812B2088810846808846F60401A0
:10125000884205D05948808845F21031884206D12D
:101260004FF4A070554908804FF4F0704880A1E019
:101270005248808845F21051884210D14FF43050C6
:101280004E4908814FF4285048814FF42C508881F2
:101290004FF4F07008804FF4487048808AE0474867
:1012A000808841F6631188420DD12C204349088182
:1012B0002B2048812A2088814FF4F07008804FF459
:1012C0004870488076E022203C49088120204881EF
:1012D000212088816EE00120384988714FF4A07088
:1012E0000880F02048800846808849F241318842D1
:1012F00005D03248808845F21031884207D12C2031
:101300002E4908812A2048812B2088813FE02B48E4
:10131000808846F60401884207D12C20274908819D
:101320002B2048812A20888131E02448808845F29A
:101330001051884210D14FF43050204908814FF4A9
:10134000285048814FF42C5088814FF44870088011
:101350004FF4F07048801AE01848808841F6631115
:1013600088420DD12C20154908812A2048812B2044
:1013700088814FF4487008804FF4F070488006E090
:1013800022200E49088121204881202088810B4895
:10139000808846F60401884205D00848808845F2D6
:1013A0001031884206D14FF4F070044908804FF4A0
:1013B000A0704880002003F053FD10BD40030020C2
:1013C00030B503460C4615465A48808849F24131EB
:1013D000884205D05748808845F21031884214D1A0
:1013E0005449488904F09EF8181204F095F8D8B2D0
:1013F00004F092F84F49888904F094F8201204F020
:101400008BF8E0B204F088F88CE04A48808845F216
:101410001051884220D14749488904F083F81812B6
:1014200004F07AF843494989491C88B204F07AF8F3
:10143000D8B204F071F83F49888904F073F820129B
:1014400004F06AF83B498989491C88B204F06AF8BB
:10145000E0B204F061F865E03648808841F6631137
:10146000884228D13348807920B932480088401E0C
:10147000C01A83B22F49488904F054F8181204F0B6
:101480004BF8D8B204F048F8181204F045F8D8B276
:1014900004F042F82749888904F044F8201204F047
:1014A0003BF8E0B204F038F8201204F035F8E0B26E
:1014B00004F032F836E01F48808846F6040188427E
:1014C0001DD11C488079012804D11A480088401E8B
:1014D000C01A83B21749488904F024F8181204F09E
:1014E0001BF8D8B204F018F81249888904F01AF8E9
:1014F000201204F011F8E0B204F00EF812E00D48EA
:101500008079012804D10B480088401EC01A83B29C
:1015100008494889194604F015F806498889214682
:1015200004F010F80348008903490880881C0580EE
:1015300030BD000040030020FE07006C2DE9FC4F89
:1015400005460E4617469846DDF82C90002001907F
:101550002748808846F60401884229D124488079AA
:10156000012825D1AB46354621480088C01B401EC6
:1015700086B247461E480088A0EB0B00401E1FFAAB
:1015800080F800201A4988712A2048812B20888100
:1015900043463A4631462846CDF80090FFF7CEFF45
:1015A0000120134988712B2048812A2088811CE062
:1015B000781B401C80B20190344614E02146284636
:1015C00003F0C4FD03F0B4FF4FF0000A06E0094841
:1015D000A0F800900AF101001FFA80FA01988245F4
:1015E000F5DB601C84B24445E8DDBDE8FC8F0000FB
:1015F000400300200008006C10B5FD48406940F42D
:101600008070FB4948610846806940F008008861A5
:101610000846806940F0200088610846806940F0F3
:10162000400088610846806940F480708861F14814
:10163000006820F00F00EF4908600846006840F09D
:1016400003000860EC480068EC490840EA4908607B
:1016500008460068EA490843E7490860081F00682F
:1016600000F0FF20091F08600846006840F0BB102A
:101670000860E44800680020E24908600846006805
:1016800040F0BB300860081F006820F07040091F60
:1016900008600846006840F030400860DA4840685A
:1016A00020F47020D84948600846406840F4302053
:1016B00048600846006820F00F000860084600688F
:1016C00040F00B00086000204FF020418861C861A5
:1016D000CE4908604FF02040806940F480504FF0C0
:1016E000204188610846806940F48040886108464E
:1016F000806940F0100088610846C069C8610846EA
:10170000C06940F00100C8610846C06940F47060DB
:10171000C861BE480068C1F81C01BC480068C1F837
:101720001C010846D0F81C0140F44070C1F81C01AF
:101730000846806940F001008861322005F0B6FE5D
:10174000002003F057FBB249888008468088FF28B4
:101750000ADB084680884FF6FF71884204D0AC4807
:101760008088B0F5134F7CD1D32003F0DBFE03F06B
:1017700037FBA749888003F033FBA549888003F035
:101780002FFBA3498880084680884FF6FF7101EA45
:1017900000209F49888003F023FB9D4989880843E6
:1017A0009B4988800846808849F24131884258D058
:1017B000BF2003F0B7FE03F013FB9549888003F0C8
:1017C0000FFB9349888003F00BFB9149888003F05D
:1017D00007FB8F498880084680884FF6FF7101EA31
:1017E00000208B49888003F0FBFA894989880843E7
:1017F000874988800846808846F6040188427AD066
:10180000D42003F08FFE03F0EBFA8149888003F0C7
:10181000E7FA7F49888003F0E3FA7D49888008462B
:1018200080884FF6FF7101EA00207949888003F033
:10183000D7FA77498988084375498880084680889F
:1018400045F21031884256D04FF45A4003F06AFEF8
:1018500003F0C6FA6E4988804FF45B4003F062FEE5
:1018600000E048E003F0BCFA6949888008468088B7
:101870004FF6FF7101EA0020654988804FF45C4013
:1018800003F050FE03F0ACFA6149898808436049CF
:10189000888008468088B0F5004F02D145F210508C
:1018A00088805B48808845F21051884223D0A1206F
:1018B00003F038FE03F094FA5549888003F090FA5B
:1018C00053498880084680884FF6FF7101EA00205E
:1018D0004F49888003F084FA4D49898808434C4970
:1018E00088800846808845F26171884203D141F6BC
:1018F0006310474988804648818846A0FEF7B4FCBB
:101900004348808849F24131884270D1CF2003F0AA
:1019100009FE002003F000FEC12003F0FDFD302091
:1019200003F0FAFDED2003F0FDFD642003F0F4FD6B
:10193000032003F0F1FD122003F0EEFD812003F0FF
:10194000EBFDE82003F0EEFD852003F0E5FD10201F
:1019500003F0E2FD7A2003F0DFFDCB2003F0E2FD8F
:10196000392003F0D9FD2C2003F0D6FD002003F030
:10197000D3FD342003F0D0FD022003F0CDFDF7208D
:1019800003F0D0FD202003F0C7FDEA2003F0CAFDDC
:10199000002003F0C1FD002003F0BEFDC02003F0D5
:1019A000C1FD1B2003F0B8FDC12003F0BBFD0120E9
:1019B00003F0B2FDC52003F0B5FD302003F0ACFD0F
:1019C000302003F0A9FDC72003F0ACFDB72003F0E1
:1019D000A3FD362003F0A6FD482003F09DFD3A202C
:1019E00003F0A0FD552003F097FDB1201AE0BFE001
:1019F00000100240000C01400414014000F0FF0000
:101A0000BB0B00BB04180140002001401C0100A0DA
:101A100040030020204C43442049443A25780D0AD5
:101A20000000000003F07EFD002003F075FD1A2089
:101A300003F072FDB62003F075FD0A2003F06CFD83
:101A4000A22003F069FDF22003F06CFD002003F0FA
:101A500063FD262003F066FD012003F05DFDE0201C
:101A600003F060FD0F2003F057FD2A2003F054FD22
:101A7000282003F051FD082003F04EFD0E2003F056
:101A80004BFD082003F048FD542003F045FDA9203C
:101A900003F042FD432003F03FFD0A2003F03CFD2C
:101AA0000F2003F039FD002003F036FD002003F085
:101AB00033FD002003F030FD002003F02DFDE12078
:101AC00003F030FD002003F027FD152003F024FD76
:101AD000172003F021FD072003F01EFD112003F065
:101AE0001BFD062003F018FD2B2003F015FD5620EA
:101AF00003F012FD3C2003F00FFD052003F00CFD68
:101B0000102003F009FD0F2003F006FD3F2003F035
:101B100003FD3F2003F000FD0F2003F0FDFC2B2010
:101B200003F000FD002003F0F7FC002003F0F4FCBC
:101B3000012003F0F1FC3F2003F0EEFC2A2003F02B
:101B4000F1FC002003F0E8FC002003F0E5FC00209D
:101B500003F0E2FCEF2003F0DFFC112003F0E2FCD5
:101B6000782005F0A3FC292003F0DCFC03F01DB96C
:101B7000FE48808846F6040188427CD1112003F09B
:101B8000D1FC142005F092FCD02003F0CBFC072000
:101B900003F0C2FC422003F0BFFC1D2003F0BCFC9C
:101BA000D12003F0BFFC002003F0B6FC1A2003F0A4
:101BB000B3FC092003F0B0FCD22003F0B3FC0120F9
:101BC00003F0AAFC222003F0A7FCC02003F0AAFC2B
:101BD000102003F0A1FC3B2003F09EFC002003F04A
:101BE0009BFC022003F098FC112003F095FCC5201B
:101BF00003F098FC032003F08FFCC82003F092FC54
:101C0000002003F089FC252003F086FC212003F04E
:101C100083FC052003F080FC002003F07DFC0A20FB
:101C200003F07AFC652003F077FC252003F074FCB8
:101C3000772003F071FC502003F06EFC0F2003F0BE
:101C40006BFC002003F068FCF82003F06BFC012023
:101C500003F062FCFE2003F065FC002003F05CFC56
:101C6000022003F059FC202003F05CFC362003F036
:101C700059FC082000E02CE003F04EFC3A2003F071
:101C800051FC552003F048FC2B2003F04BFC0020B6
:101C900003F042FC002003F03FFC012003F03CFC79
:101CA0003F2003F039FC2A2003F03CFC002003F025
:101CB00033FC002003F030FC012003F02DFCDF207A
:101CC00003F02AFC782005F0F1FB292003F02AFC20
:101CD0004CE7A648808845F21031884240F07C8766
:101CE000ED2003F01FFC012003F016FCFE2003F0A2
:101CF00013FCEE2003F016FCDE2003F00DFC212087
:101D000003F00AFCF12003F00DFC012003F004FCB9
:101D1000DF2003F007FC102003F0FEFBC42003F0DB
:101D200001FC8F2003F0F8FBC62003F0FBFB002032
:101D300003F0F2FBE22003F0EFFBE22003F0ECFB08
:101D4000E22003F0E9FBBF2003F0ECFBAA2003F044
:101D5000E3FBB02003F0E6FB0D2003F0DDFB0020E9
:101D600003F0DAFB0D2003F0D7FB002003F0D4FBD7
:101D7000112003F0D1FB002003F0CEFB192003F06B
:101D8000CBFB002003F0C8FB212003F0C5FB0020A3
:101D900003F0C2FB2D2003F0BFFB002003F0BCFBCF
:101DA0003D2003F0B9FB002003F0B6FB5D2003F0FB
:101DB000B3FB002003F0B0FB5D2003F0ADFB00207F
:101DC00003F0AAFBB12003F0ADFB802003F0A4FBDD
:101DD000002003F0A1FB8B2003F09EFB002003F00A
:101DE0009BFB962003F098FB002003F095FBB220AC
:101DF00003F098FB002003F08FFB002003F08CFB26
:101E0000022003F089FB002003F086FB032003F08F
:101E100083FB002003F080FBB32003F083FB002052
:101E200003F07AFB002003F077FB002003F074FB43
:101E3000002003F071FB002003F06EFB002003F094
:101E40006BFB002003F068FB002003F065FB002023
:101E500003F062FB002003F05FFB002003F05CFB5B
:101E6000002003F059FB002003F056FB002003F094
:101E700053FB002003F050FB002003F04DFB00203B
:101E800003F04AFB002003F047FB002003F044FB73
:101E9000002003F041FB002003F03EFB002003F094
:101EA0003BFB002003F038FB002003F035FBB4209F
:101EB00003F038FB8B2003F02FFB002003F02CFBFA
:101EC000962003F029FB002003F026FBA12003F05D
:101ED00023FB002003F020FBB52003F023FB0220AE
:101EE00003F01AFB002003F017FB032003F014FBA0
:101EF000002003F011FB042003F00EFB002003F090
:101F00000BFBB62003F00EFB002003F005FB0020C6
:101F100003F002FBB72003F005FB002003F0FCFAFE
:101F2000002003F0F9FA3F2003F0F6FA002003F056
:101F3000F3FA5E2003F0F0FA002003F0EDFA6420DB
:101F400003F0EAFA002003F0E7FA8C2003F0E4FA49
:101F5000002003F0E1FAAC2003F0DEFA002003F0E9
:101F6000DBFADC2003F0D8FA002001E04003002077
:101F700003F0D2FA702003F0CFFA002003F0CCFA7D
:101F8000902003F0C9FA002003F0C6FAEB2003F01A
:101F9000C3FA002003F0C0FADC2003F0BDFA0020F1
:101FA00003F0BAFAB82003F0BDFA002003F0B4FA47
:101FB000002003F0B1FA002003F0AEFA002003F095
:101FC000ABFA002003F0A8FA002003F0A5FA0020E5
:101FD00003F0A2FA002003F09FFABA2003F0A2FA5D
:101FE000242003F099FA002003F096FA002003F071
:101FF00093FA002003F090FAC12003F093FA202016
:1020000003F08AFA002003F087FA542003F084FAE0
:10201000002003F081FAFF2003F07EFA002003F095
:102020007BFAC22003F07EFA0A2003F075FA002042
:1020300003F072FA042003F06FFA002003F06CFA48
:10204000C32003F06FFA3C2003F066FA002003F08F
:1020500063FA3A2003F060FA002003F05DFA3920B9
:1020600003F05AFA002003F057FA372003F054FA2D
:10207000002003F051FA3C2003F04EFA002003F058
:102080004BFA362003F048FA002003F045FA3220DC
:1020900003F042FA002003F03FFA2F2003F03CFA4D
:1020A000002003F039FA2C2003F036FA002003F068
:1020B00033FA292003F030FA002003F02DFA26200D
:1020C00003F02AFA002003F027FA242003F024FA70
:1020D000002003F021FA242003F01EFA002003F070
:1020E0001BFA232003F018FA002003F015FA3C2015
:1020F00003F012FA002003F00FFA362003F00CFA76
:10210000002003F009FA322003F006FA002003F061
:1021100003FA2F2003F000FA002003F0FDF92C2031
:1021200003F0FAF9002003F0F7F9292003F0F4F99D
:10213000002003F0F1F9262003F0EEF9002003F06F
:10214000EBF9242003F0E8F9002003F0E5F924205E
:1021500003F0E2F9002003F0DFF9232003F0DCF9BB
:10216000002003F0D9F9C42003F0DCF9622003F069
:10217000D3F9002003F0D0F9052003F0CDF90020B9
:1021800003F0CAF9842003F0C7F9002003F0C4F972
:10219000F02003F0C1F9002003F0BEF9182003F08D
:1021A000BBF9002003F0B8F9A42003F0B5F9002032
:1021B00003F0B2F9182003F0AFF9002003F0ACF9F6
:1021C000502003F0A9F9002003F0A6F90C2003F039
:1021D000A3F9002003F0A0F9172003F09DF90020D7
:1021E00003F09AF9952003F097F9002003F094F991
:1021F000F32003F091F9002003F08EF9E62003F0BC
:102200008BF9002003F088F9C52003F08BF9322008
:1022100003F082F9002003F07FF9442003F07CF9F9
:10222000002003F079F9652003F076F9002003F02F
:1022300073F9762003F070F9002003F06DF988201F
:1022400003F06AF9002003F067F9C62003F06AF989
:10225000202003F061F9002003F05EF9172003F05D
:102260005BF9002003F058F9012003F055F9002034
:1022700003F052F9C72003F055F9002003F04CF9A0
:10228000002003F049F9002003F046F9002003F094
:1022900043F9C82003F046F9002003F03DF900207F
:1022A00003F03AF9002003F037F9002003F034F985
:1022B000C92003F037F9002003F02EF9002003F0C5
:1022C0002BF9002003F028F9002003F025F9002065
:1022D00003F022F9002003F01FF9002003F01CF99D
:1022E000002003F019F9002003F016F9002003F094
:1022F00013F9002003F010F9002003F00DF900207D
:1023000003F00AF9002003F007F9002003F004F9B4
:10231000002003F001F9E02003F004F9162003F097
:10232000FBF8002003F0F8F81C2003F0F5F800207B
:1023300003F0F2F8212003F0EFF8002003F0ECF8AE
:10234000362003F0E9F8002003F0E6F8462003F019
:10235000E3F8002003F0E0F8522003F0DDF800205D
:1023600003F0DAF8642003F0D7F8002003F0D4F883
:102370007A2003F0D1F8002003F0CEF88B2003F090
:10238000CBF8002003F0C8F8992003F0C5F800202E
:1023900003F0C2F8A82003F0BFF8002003F0BCF857
:1023A000B92003F0B9F8002003F0B6F8C42003F018
:1023B000B3F8002003F0B0F8CA2003F0ADF8002015
:1023C00003F0AAF8D22003F0A7F8002003F0A4F845
:1023D000D92003F0A1F8002003F09EF8E02003F0DC
:1023E0009BF8002003F098F8F32003F095F8002004
:1023F00003F092F8E12003F095F8162003F08CF832
:10240000002003F089F81C2003F086F8002003F078
:1024100083F8222003F080F8002003F07DF83620B6
:1024200003F07AF8002003F077F8452003F074F801
:10243000002003F071F8522003F06EF8002003F042
:102440006BF8642003F068F8002003F065F87A2048
:1024500003F062F8002003F05FF88B2003F05CF8D3
:10246000002003F059F8992003F056F8002003F0FB
:1024700053F8A82003F050F8002003F04DF8B920DD
:1024800003F04AF8002003F047F8C42003F044F8B2
:10249000002003F041F8CA2003F03EF8002003F0CA
:1024A0003BF8D22003F038F8002003F035F8D820AC
:1024B00003F032F8002003F02FF8E02003F02CF8AE
:1024C000002003F029F8F32003F026F8002003F0A1
:1024D00023F8E22003F026F8052003F01DF8002081
:1024E00003F01AF80B2003F017F8002003F014F89B
:1024F0001B2003F011F8002003F00EF8342003F045
:102500000BF8002003F008F8442003F005F8002041
:1025100003F002F84F2002F0FFFF002002F0FCFF62
:10252000612002F0F9FF002002F0F6FF792002F0AE
:10253000F3FF002002F0F0FF882002F0EDFF002002
:1025400002F0EAFF972002F0E7FF002002F0E4FF2C
:10255000A62002F0E1FF002002F0DEFFB72002F02B
:10256000DBFF002002F0D8FFC22002F0D5FF0020E0
:1025700002F0D2FFC72002F0CFFF002002F0CCFF14
:10258000D12002F0C9FF002002F0C6FFD62002F0E1
:10259000C3FF002002F0C0FFDD2002F0BDFF0020DD
:1025A00002F0BAFFF32002F0B7FF002002F0B4FF00
:1025B000E32002F0B7FF052002F0AEFF002002F09A
:1025C000ABFF0A2002F0A8FF002002F0A5FF1C20AC
:1025D00002F0A2FF002002F09FFF332002F09CFFD8
:1025E000002002F099FF442002F096FF002002F044
:1025F00093FF502002F090FF002002F08DFF622038
:1026000002F08AFF002002F087FF782002F084FFAA
:10261000002002F081FF882002F07EFF002002F0FF
:102620007BFF972002F078FF002002F075FFA620C4
:1026300002F072FF002002F06FFFB72002F06CFF83
:10264000002002F069FFC22002F066FF002002F0C5
:1026500063FFC72002F060FF002002F05DFFD12081
:1026600002F05AFF002002F057FFD52002F054FF7D
:10267000002002F051FFDD2002F04EFF002002F0AA
:102680004BFFF32002F048FF002002F045FFE4205A
:1026900002F048FF012002F03FFF002002F03CFF63
:1026A000012002F039FF002002F036FF022002F084
:1026B00033FF002002F030FF2A2002F02DFF00201F
:1026C00002F02AFF3C2002F027FF002002F024FF46
:1026D0004B2002F021FF002002F01EFF5D2002F0DF
:1026E0001BFF002002F018FF742002F015FF0020ED
:1026F00002F012FF842002F00FFF002002F00CFF16
:10270000932002F009FF002002F006FFA22002F051
:1027100003FF002002F000FFB32002F0FDFE0020C6
:1027200002F0FAFEBE2002F0F7FE002002F0F4FEF6
:10273000C42002F0F1FE002002F0EEFECD2002F0F7
:10274000EBFE002002F0E8FED32002F0E5FE0020C0
:1027500002F0E2FEDD2002F0DFFE002002F0DCFEEF
:10276000F32002F0D9FE002002F0D6FEE52002F0B0
:10277000D9FE002002F0D0FE002002F0CDFE0020A5
:1027800002F0CAFE002002F0C7FE022002F0C4FEE2
:10279000002002F0C1FE292002F0BEFE002002F05F
:1027A000BBFE3C2002F0B8FE002002F0B5FE4B203C
:1027B00002F0B2FE002002F0AFFE5D2002F0ACFE9F
:1027C000002002F0A9FE742002F0A6FE002002F014
:1027D000A3FE842002F0A0FE002002F09DFE9320C4
:1027E00002F09AFE002002F097FEA22002F094FE72
:1027F000002002F091FEB32002F08EFE002002F0D5
:102800008BFEBE2002F088FE002002F085FEC42070
:1028100002F082FE002002F07FFECD2002F07CFE5E
:10282000002002F079FED32002F076FE002002F0B4
:1028300073FEDC2002F070FE002002F06DFEF3203B
:1028400002F06AFE002002F067FEE62002F06AFE57
:10285000112002F061FE002002F05EFE342002F042
:102860005BFE002002F058FE562002F055FE0020CC
:1028700002F052FE762002F04FFE002002F04CFEE5
:10288000772002F049FE002002F046FE662002F0AA
:1028900043FE002002F040FE882002F03DFE0020B2
:1028A00002F03AFE992002F037FE002002F034FEDA
:1028B000BB2002F031FE002002F02EFE992002F033
:1028C0002BFE002002F028FE662002F025FE0020EC
:1028D00002F022FE552002F01FFE002002F01CFE36
:1028E000552002F019FE002002F016FE452002F0ED
:1028F00013FE002002F010FE432002F00DFE002027
:1029000002F00AFE442002F007FE002002F004FE5E
:10291000E72002F007FE322002F0FEFD002002F068
:10292000FBFD552002F0F8FD002002F0F5FD7620B9
:1029300002F0F2FD002002F0EFFD662002F0ECFD57
:10294000002002F0E9FD672002F0E6FD002002F021
:10295000E3FD672002F0E0FD002002F0DDFD8720AE
:1029600002F0DAFD002002F0D7FD992002F0D4FD3C
:10297000002002F0D1FDBB2002F0CEFD002002F0CD
:10298000CBFD992002F0C8FD002002F0C5FD7720A4
:1029900002F0C2FD002002F0BFFD442002F0BCFDA9
:1029A000002002F0B9FD562002F0B6FD002002F032
:1029B000B3FD232002F0B0FD002002F0ADFD332076
:1029C00002F0AAFD002002F0A7FD452002F0A4FDC0
:1029D000002002F0A1FDE82002F0A4FD002002F09A
:1029E0009BFD002002F098FD992002F095FD00204B
:1029F00002F092FD872002F08FFD002002F08CFD96
:102A0000882002F089FD002002F086FD772002F088
:102A100083FD002002F080FD662002F07DFD002095
:102A200002F07AFD882002F077FD002002F074FDAC
:102A3000AA2002F071FD002002F06EFDBB2002F022
:102A40006BFD002002F068FD992002F065FD00207A
:102A500002F062FD662002F05FFD002002F05CFDE6
:102A6000552002F059FD002002F056FD552002F0DD
:102A700053FD002002F050FD442002F04DFD0020E7
:102A800002F04AFD442002F047FD002002F044FD20
:102A9000552002F041FD002002F03EFDE92002F049
:102AA00041FDAA2002F038FD002002F035FD002093
:102AB00002F032FD002002F02FFD002002F032FD76
:102AC000AA2002F029FDCF2002F02CFD002002F008
:102AD00023FD002002F020FD002002F01DFD00205B
:102AE00002F01AFD002002F017FD002002F014FD94
:102AF000002002F011FD002002F00EFD002002F087
:102B00000BFD002002F008FD002002F005FD002072
:102B100002F002FD002002F0FFFC002002F0FCFCAD
:102B2000002002F0F9FC002002F0F6FC002002F088
:102B3000F3FCF02002F0F6FC002002F0EDFC502047
:102B400002F0EAFC002002F0E7FC002002F0E4FCC6
:102B5000002002F0E1FCF32002F0E4FC002002F08F
:102B6000DBFCF92002F0DEFC062002F0D5FC102090
:102B700002F0D2FC292002F0CFFC002002F0CCFCB5
:102B80003A2002F0CFFC552002F0C6FC112002F0E2
:102B9000C9FC642004F08AFC292002F0C3FC352023
:102BA00002F0C0FC002002F0B7FC512002F0BAFC99
:102BB000FF2002F0B1FC532002F0B4FC2C2002F004
:102BC000ABFC552002F0AEFC822002F0A5FC2C20CC
:102BD00002F0A8FC02F0E9B8FE48808845F21051E6
:102BE00088427DD155214FF4704002F0ABFCAA2100
:102BF0004FF2010002F0A6FC52214FF2020002F057
:102C0000A1FC08214FF2030002F09CFC01214FF2CD
:102C1000040002F097FC0D214FF4304002F092FCCA
:102C20000D214BF2010002F08DFC0D214BF2020050
:102C300002F088FC34214FF4364002F083FC34214A
:102C40004BF2016002F07EFC34214BF2026002F094
:102C500079FC0D214FF4314002F074FC0D214BF250
:102C6000011002F06FFC0D214BF2021002F06AFC21
:102C700034214FF4374002F065FC34214BF20170EF
:102C800002F060FC34214BF2027002F05BFC002188
:102C90004FF4324002F056FC00214BF2012002F0CA
:102CA00051FC00214BF2022002F04CFC24214FF495
:102CB000384002F047FC24214BF6010002F042FCB0
:102CC00024214BF6020002F03DFC01214FF43F406D
:102CD00002F038FC0F214FF4334002F033FC00E0E7
:102CE000FDE30F214BF2013002F02CFC0F214BF2DF
:102CF000023002F027FC34214FF4394002F022FC6C
:102D000034214BF6011002F01DFC34214BF6021069
:102D100002F018FC08214FF4354002F013FC0821A2
:102D20004BF2015002F00EFC08214BF2025002F06F
:102D300009FC03214FF4424002F004FC24214FF42B
:102D40003A4002F0FFFB24214BF6012002F0FAFB8F
:102D500024214BF6022002F0F5FB00214FF43C4009
:102D600002F0F0FB78214BF6014002F0EBFB002172
:102D70004BF6024002F0E6FB00214FF43D4002F02A
:102D8000E1FB78214BF6015002F0DCFB00214BF611
:102D9000025002F0D7FB00214FF43E4002F0D2FB7C
:102DA00064214BF6016002F0CDFB00214FF451404D
:102DB00002F0C8FB33214DF2011002F0C3FB0021E9
:102DC0004DF2021002F0BEFB34214DF2031002F06E
:102DD000B9FB00214DF2041002F0B4FB3A214DF290
:102DE000051002F0AFFB00214DF2061002F0AAFB25
:102DF0004A214DF2071002F0A5FB00214DF2081008
:102E000002F0A0FB5C214DF2091002F09BFB0021B7
:102E10004DF20A1002F096FB81214DF20B1002F0E8
:102E200091FB00214DF20C1002F08CFBA6214DF21B
:102E30000D1002F087FB00214DF20E1002F082FB14
:102E4000E5214DF20F1002F07DFB01214DF2101033
:102E500002F078FB13214DF2111002F073FB0121F7
:102E60004DF2121002F06EFB54214DF2131002F0DD
:102E700069FB01214DF2141002F064FB82214DF236
:102E8000151002F05FFB01214DF2161002F05AFB03
:102E9000CA214DF2171002F055FB02214DF2181015
:102EA00002F050FB00214DF2191002F04BFB022101
:102EB0004DF21A1002F046FB01214DF21B1002F0F8
:102EC00041FB02214DF21C1002F03CFB34214DF27B
:102ED0001D1002F037FB02214DF21E1002F032FBF2
:102EE00067214DF21F1002F02DFB02214DF2201040
:102EF00002F028FB84214DF2211002F023FB022175
:102F00004DF2221002F01EFBA4214DF2231002F01C
:102F100019FB02214DF2241002F014FBB7214DF2EF
:102F2000251002F00FFB02214DF2261002F00AFBE1
:102F3000CF214DF2271002F005FB02214DF228109F
:102F400002F000FBDE214DF2291002F0FBFA022113
:102F50004DF22A1002F0F6FAF2214DF22B1002F097
:102F6000F1FA02214DF22C1002F0ECFAFE214DF2A2
:102F70002D1002F0E7FA03214DF22E1002F0E2FAD2
:102F800010214DF22F1002F0DDFA03214DF2301026
:102F900002F0D8FA33214DF2311002F0D3FA0321B6
:102FA0004DF2321002F0CEFA6D214DF2331002F0E4
:102FB000C9FA00214FF4524002F0C4FA33214DF215
:102FC000012002F0BFFA00214DF2022002F0BAFA0D
:102FD000342101E0400300204DF2032002F0B2FA58
:102FE00000214DF2042002F0ADFA3A214DF2052005
:102FF00002F0A8FA00214DF2062002F0A3FA4A21BD
:103000004DF2072002F09EFA00214DF2082002F056
:1030100099FA5C214DF2092002F094FA00214DF258
:103020000A2002F08FFA81214DF20B2002F08AFA79
:1030300000214DF20C2002F085FAA6214DF20D2060
:1030400002F080FA00214DF20E2002F07BFAE52119
:103050004DF20F2002F076FA01214DF2102002F01D
:1030600071FA13214DF2112002F06CFA01214DF298
:10307000122002F067FA54214DF2132002F062FA96
:1030800001214DF2142002F05DFA82214DF215204B
:1030900002F058FA01214DF2162002F053FACA212B
:1030A0004DF2172002F04EFA02214DF2182002F0E4
:1030B00049FA00214DF2192002F044FA02214DF2A2
:1030C0001A2002F03FFA01214DF21B2002F03AFAD9
:1030D00002214DF21C2002F035FA34214DF21D2060
:1030E00002F030FA02214DF21E2002F02BFA672185
:1030F0004DF21F2002F026FA02214DF2202002F0AC
:1031000021FA84214DF2212002F01CFA02214DF215
:10311000222002F017FAA4214DF2232002F012FA25
:1031200002214DF2242002F00DFAB7214DF22520A4
:1031300002F008FA02214DF2262002F003FACF2114
:103140004DF2272002F0FEF902214DF2282002F074
:10315000F9F9DE214DF2292002F0F4F902214DF2B5
:103160002A2002F0EFF9F2214DF22B2002F0EAF9C9
:1031700002214DF22C2002F0E5F9FE214DF22D2026
:1031800002F0E0F903214DF22E2002F0DBF91021CC
:103190004DF22F2002F0D6F903214DF2302002F03B
:1031A000D1F933214DF2312002F0CCF903214DF257
:1031B000322002F0C7F96D214DF2332002F0C2F93E
:1031C00000214FF4534002F0BDF933214DF201309C
:1031D00002F0B8F900214DF2023002F0B3F93421C7
:1031E0004DF2033002F0AEF900214DF2043002F04E
:1031F000A9F93A214DF2053002F0A4F900214DF26F
:10320000063002F09FF94A214DF2073002F09AF998
:1032100000214DF2083002F095F95C214DF20930A1
:1032200002F090F900214DF20A3002F08BF9812171
:103230004DF20B3002F086F900214DF20C3002F015
:1032400081F9A6214DF20D3002F07CF900214DF2FA
:103250000E3002F077F9E5214DF20F3002F072F9ED
:1032600001214DF2103002F06DF913214DF21130B1
:1032700002F068F901214DF2123002F063F9542195
:103280004DF2133002F05EF901214DF2143002F0DC
:1032900059F982214DF2153002F054F901214DF215
:1032A000163002F04FF9CA214DF2173002F04AF9F8
:1032B00002214DF2183002F045F900214DF219308B
:1032C00002F040F902214DF21A3002F03BF90121DF
:1032D0004DF21B3002F036F902214DF21C3002F0A3
:1032E00031F934214DF21D3002F02CF902214DF25A
:1032F0001E3002F027F967214DF21F3002F022F94B
:1033000002214DF2203002F01DF984214DF22130CE
:1033100002F018F902214DF2223002F013F9A42133
:103320004DF2233002F00EF902214DF2243002F06A
:1033300009F9B7214DF2253002F004F902214DF2CE
:10334000263002F0FFF8CF214DF2273002F0FAF8D4
:1033500002214DF2283002F0F5F8DE214DF229303D
:1033600002F0F0F802214DF22A3002F0EBF8F221DF
:103370004DF22B3002F0E6F802214DF22C3002F033
:10338000E1F8FE214DF22D3002F0DCF803214DF280
:103390002E3002F0D7F810214DF22F3002F0D2F883
:1033A00003214DF2303002F0CDF833214DF23130AF
:1033B00002F0C8F803214DF2323002F0C3F86D215B
:1033C0004DF2333002F0BEF800214FF4544002F0C9
:1033D000B9F833214DF2014002F0B4F800214DF26A
:1033E000024002F0AFF834214DF2034002F0AAF897
:1033F00000214DF2044002F0A5F83A214DF20540BB
:1034000002F0A0F800214DF2064002F09BF84A219C
:103410004DF2074002F096F800214DF2084002F00C
:1034200091F85C214DF2094002F08CF800214DF238
:103430000A4002F087F881214DF20B4002F082F839
:1034400000214DF20C4002F07DF8A6214DF20D4016
:1034500002F078F800214DF20E4002F073F8E521F9
:103460004DF20F4002F06EF801214DF2104002F0D3
:1034700069F813214DF2114002F064F801214DF278
:10348000124002F05FF854214DF2134002F05AF856
:1034900001214DF2144002F055F882214DF2154001
:1034A00002F050F801214DF2164002F04BF8CA210B
:1034B0004DF2174002F046F802214DF2184002F09A
:1034C00041F800214DF2194002F03CF802214DF282
:1034D0001A4002F037F801214DF21B4000E006E3EC
:1034E00002F030F802214DF21C4002F02BF834219A
:1034F0004DF21D4002F026F802214DF21E4002F06E
:1035000021F867214DF21F4002F01CF802214DF214
:10351000204002F017F884214DF2214002F012F809
:1035200002214DF2224002F00DF8A4214DF2234079
:1035300002F008F802214DF2244002F003F8B7210E
:103540004DF2254001F0FEFF02214DF2264001F030
:10355000F9FFCF214DF2274001F0F4FF02214DF297
:10356000284001F0EFFFDE214DF2294001F0EAFF93
:1035700002214DF22A4001F0E5FFF2214DF22B40ED
:1035800001F0E0FF02214DF22C4001F0DBFFFE21B3
:103590004DF22D4001F0D6FF03214DF22E4001F0F7
:1035A000D1FF10214DF22F4001F0CCFF03214DF24D
:1035B000304001F0C7FF33214DF2314001F0C2FF2E
:1035C00003214DF2324001F0BDFF6D214DF2334039
:1035D00001F0B8FF00214FF4554001F0B3FF332153
:1035E0004DF2015001F0AEFF00214DF2025001F00A
:1035F000A9FF34214DF2035001F0A4FF00214DF248
:10360000045001F09FFF3A214DF2055001F09AFF5E
:1036100000214DF2065001F095FF4A214DF207506E
:1036200001F090FF00214DF2085001F08BFF5C216A
:103630004DF2095001F086FF00214DF20A5001F0D1
:1036400081FF81214DF20B5001F07CFF00214DF2F2
:103650000C5001F077FFA6214DF20D5001F072FFE2
:1036600000214DF20E5001F06DFFE5214DF20F509B
:1036700001F068FF01214DF2105001F063FF1321AA
:103680004DF2115001F05EFF01214DF2125001F098
:1036900059FF54214DF2135001F054FF01214DF216
:1036A000145001F04FFF82214DF2155001F04AFFF6
:1036B00001214DF2165001F045FFCA214DF217507D
:1036C00001F040FF02214DF2185001F03BFF0021B4
:1036D0004DF2195001F036FF02214DF21A5001F05F
:1036E00031FF01214DF21B5001F02CFF02214DF260
:1036F0001C5001F027FF34214DF21D5001F022FF34
:1037000002214DF21E5001F01DFF67214DF21F50A6
:1037100001F018FF02214DF2205001F013FF842127
:103720004DF2215001F00EFF02214DF2225001F026
:1037300009FFA4214DF2235001F004FF02214DF2B4
:10374000245001F0FFFEB7214DF2255001F0FAFEA2
:1037500002214DF2265001F0F5FECF214DF2275007
:1037600001F0F0FE02214DF2285001F0EBFEDE21C7
:103770004DF2295001F0E6FE02214DF22A5001F0EF
:10378000E1FEF2214DF22B5001F0DCFE02214DF260
:103790002C5001F0D7FEFE214DF22D5001F0D2FE4B
:1037A00003214DF22E5001F0CDFE10214DF22F508D
:1037B00001F0C8FE03214DF2305001F0C3FE332169
:1037C0004DF2315001F0BEFE03214DF2325001F0B6
:1037D000B9FE6D214DF2335001F0B4FE00214FF4DB
:1037E000564001F0AFFE33214DF2016001F0AAFE18
:1037F00000214DF2026001F0A5FE34214DF203607C
:1038000001F0A0FE00214DF2046001F09BFE3A2180
:103810004DF2056001F096FE00214DF2066001F0C8
:1038200091FE4A214DF2076001F08CFE00214DF21D
:10383000086001F087FE5C214DF2096001F082FE14
:1038400000214DF20A6001F07DFE81214DF20B60F6
:1038500001F078FE00214DF20C6001F073FEA6210C
:103860004DF20D6001F06EFE00214DF20E6001F090
:1038700069FEE5214DF20F6001F064FE01214DF279
:10388000106001F05FFE13214DF2116001F05AFE4D
:1038900001214DF2126001F055FE54214DF21360EA
:1038A00001F050FE01214DF2146001F04BFE822127
:1038B0004DF2156001F046FE01214DF2166001F057
:1038C00041FECA214DF2176001F03CFE02214DF28B
:1038D000186001F037FE00214DF2196001F032FE50
:1038E00002214DF21A6001F02DFE01214DF21B6004
:1038F00001F028FE02214DF21C6001F023FE34216C
:103900004DF21D6001F01EFE02214DF21E6001F01D
:1039100019FE67214DF21F6001F014FE02214DF2E5
:10392000206001F00FFE84214DF2216001F00AFEBB
:1039300002214DF2226001F005FEA4214DF2236028
:1039400001F000FE02214DF2246001F0FBFDB721E1
:103950004DF2256001F0F6FD02214DF2266001F0E6
:10396000F1FDCF214DF2276001F0ECFD02214DF277
:10397000286001F0E7FDDE214DF2296001F0E2FD53
:1039800002214DF22A6001F0DDFDF2214DF22B60A3
:1039900001F0D8FD02214DF22C6001F0D3FDFE2193
:1039A0004DF22D6001F0CEFD03214DF22E6001F0AD
:1039B000C9FD10214DF22F6001F0C4FD03214DF22D
:1039C000306001F0BFFD33214DF2316001F0BAFDEE
:1039D00003214DF2326001F0B5FD6D214DF23360EF
:1039E00001F0B0FD55214FF4704001F0ABFDAA216C
:1039F0004FF2010001F0A6FD52214FF2020001F04A
:103A0000A1FD08214FF2030001F09CFD00214FF2BF
:103A1000040001F097FDCC214FF4314001F092FDFC
:103A200000214BF2011001F08DFD05214FF43640CD
:103A300001F088FD70214FF4374001F083FD7021C3
:103A40004BF2017001F07EFD01214FF4384001F08E
:103A500079FD03214BF6010001F074FD03214BF6C3
:103A6000020001F06FFD03214BF6030001F06AFD37
:103A700002214FF43C4001F065FD00214BF601406E
:103A800001F060FD00214BF6024001F05BFDD0210A
:103A90004FF4494001F056FD02214CF6011001F0AF
:103AA00051FD50214CF6021001F04CFD50214CF616
:103AB000031001F047FD50214CF6041001F042FDC7
:103AC00000214FF4545001F03DFD55214FF4685052
:103AD00001F038FD4FF4885001F024FD782003F008
:103AE00003FD4FF4245001F01DFD01F05EB9FE48C6
:103AF000808849F2253188427ED147F6F001E520E1
:103B000001F020FD4FF48071012001F01BFD4FF406
:103B1000E061022001F016FD41F23001032001F0C6
:103B200011FD0021042001F00DFD40F202210820CA
:103B300001F008FD0021092001F004FD00210A2008
:103B400001F000FD00210C2001F0FCFC00210D2003
:103B500001F0F8FC00210F2001F0F4FC00211020FE
:103B600001F0F0FC0721112001F0ECFC00211220F3
:103B700001F0E8FC0021132001F0E4FC0021072003
:103B800001F0E0FC41F29061102001F0DBFC40F21A
:103B90002721112001F0D6FC9D21122001F0D2FC3A
:103BA0004FF4C851132001F0CDFC2521292001F04C
:103BB000C9FC0D212B2001F0C5FC0721302001F0AC
:103BC000C1FC40F20331312001F0BCFC0321322062
:103BD00001F0B8FC40F20621352001F0B3FC0821C9
:103BE000362001F0AFFC40F20641372001F0AAFC7C
:103BF0004FF44171382000E057E001F0A3FC0721A9
:103C0000392001F09FFC40F202613C2001F09AFC57
:103C100008213D2001F096FC0021502001F092FC8B
:103C2000EF21512001F08EFC0021522001F08AFC8E
:103C300040F23F11532001F085FC4FF427416020F2
:103C400001F080FC0121612001F07CFC00216A2050
:103C500001F078FC0021802001F074FC002181201B
:103C600001F070FC0021822001F06CFC0021832017
:103C700001F068FC0021842001F064FC0021852013
:103C800001F060FC1021902001F05CFC4FF4C06159
:103C9000922001F057FC40F23311072001F052FC52
:103CA0002221002001F04EFC1FE78F48808849F256
:103CB000283188427ED141F28F01EC2001F042FC94
:103CC00041F23421EF2001F03DFC4FF480710120DE
:103CD00001F038FC4FF4E061022001F033FC41F2C6
:103CE0003001032001F02EFC0021042001F02AFC09
:103CF00040F20221082001F025FC0021092001F0FA
:103D000021FC00210A2001F01DFC01210C2001F002
:103D100019FC00210D2001F015FC00210F2001F0FD
:103D200011FC0021102001F00DFC0721112001F0F1
:103D300009FC0021122001F005FC0021132001F0F4
:103D400001FC0121072001F0FDFB322003F0AEFB56
:103D500041F29041102001F0F5FB40F227211120A3
:103D600001F0F0FB322003F0A1FB8A21122001F0C8
:103D7000E9FB322003F09AFB4FF4D051132001F0FD
:103D8000E1FB0621292001F0DDFB0D212B2001F0B4
:103D9000D9FB322003F08AFB0021202001F0D2FB66
:103DA0000021212001F0CEFB322003F07FFB002117
:103DB000302000E074E001F0C5FB40F204613120E6
:103DC00001F0C0FB40F20531322001F0BBFB0021C5
:103DD000352001F0B7FB40F60941362001F0B2FB77
:103DE0004FF40171372001F0ADFB40F20131382072
:103DF00001F0A8FB40F20771392001F0A3FB00217C
:103E00003C2001F09FFB40F60A213D2001F09AFB87
:103E1000322003F04BFB0021502001F093FBEF21F7
:103E2000512001F08FFB0021522001F08BFB40F26A
:103E30003F11532001F086FB4FF42741602001F031
:103E400081FB0121612001F07DFB00216A2001F04E
:103E500079FB0021802001F075FB0021812001F019
:103E600071FB0021822001F06DFB0021832001F015
:103E700069FB0021842001F065FB0021852001F011
:103E800061FB1021902001F05DFB4FF4C061922096
:103E900001F058FB40F23311072001F053FB24E6F8
:103EA0001148808849F2203188427DD1002108469E
:103EB00001F048FB4FF48071012001F043FB4FF407
:103EC000E061022001F03EFB41F23001032001F0ED
:103ED00039FB0021042001F035FB40F202210820CB
:103EE00001F030FB002101E040030020092001F037
:103EF00029FB00210A2001F025FB01210C2001F003
:103F000021FB00210D2001F01DFB00210F2001F0FD
:103F100019FB322003F0CAFA40F20111072001F028
:103F200011FB322003F0C2FA4FF48651102001F049
:103F300009FB0721112001F005FB4FF488711220C5
:103F400001F000FB4FF43061132001F0FBFA002177
:103F5000292001F0F7FA44F210012B2001F0F2FAC7
:103F60000021502001F0EEFAEF21512001F0EAFA91
:103F70000021522001F0E6FA40F23F11532001F0F7
:103F8000E1FA4FF41C51602001F0DCFA01216120BC
:103F900001F0D8FA00216A2001F0D4FA0021802033
:103FA00001F0D0FA002100E031E0812001F0CAFAEE
:103FB0000021822001F0C6FA0021832001F0C2FA1C
:103FC0000021842001F0BEFA0021852001F0BAFA18
:103FD0001021902001F0B6FA0021922001F0B2FAEF
:103FE0000121932001F0AEFA4FF48871952001F081
:103FF000A9FA0021972001F0A5FA0021982001F0EC
:10400000A1FA40F27311072001F09CFA6DE5FE4819
:10401000808849F2313188427DD141F21401E72094
:1040200001F090FA4FF48071012001F08BFA4FF407
:104030000071022001F086FA41F23801032001F0FC
:1040400081FA40F20221082001F07CFA00210920C7
:1040500001F078FA00210A2001F074FA00210C2006
:1040600001F070FA00210D2001F06CFA00210F2000
:1040700001F068FA0021102001F064FA07211120F4
:1040800001F060FA0021122001F05CFA00211320F7
:1040900001F058FAC82003F009FA41F290611020AB
:1040A00001F050FA40F22721112001F04BFA3220A2
:1040B00003F0FCF90C21122001F044FA322003F045
:1040C000F5F94FF40061132001F03CFA1121292089
:1040D00001F038FA0B212B2001F034FA322003F0E2
:1040E000E5F90021202001F02DFA40F23F112120B6
:1040F00001F028FA0021302001F024FA4FF48371F6
:10410000312001F01FFA0021322001F01BFA4FF498
:104110000171352000E064E001F014FA41F20A6117
:10412000362001F00FFA40F20771372001F00AFA49
:104130004FF48371382001F005FA40F207713920FD
:1041400001F000FA40F202413C2001F0FBF940F698
:104150000F413D2001F0F6F90021502001F0F2F965
:10416000EF21512001F0EEF90021522001F0EAF98F
:1041700040F23F11532001F0E5F94FF41C5160204B
:1041800001F0E0F90121612001F0DCF900216A2051
:1041900001F0D8F90021802001F0D4F9002181201C
:1041A00001F0D0F90021822001F0CCF90021832018
:1041B00001F0C8F90021842001F0C4F90021852014
:1041C00001F0C0F91021902001F0BCF94FF4C0615A
:1041D000922001F0B7F940F23311072001F0B2F953
:1041E00083E48948808845F2084188427ED14FF4B3
:1041F0008071012001F0A6F94FF4E061022001F086
:10420000A1F941F23001032001F09CF900210420C2
:1042100001F098F940F20721082001F093F90021FC
:10422000092001F08FF900210A2001F08BF900210B
:104230000C2001F087F900210D2001F083F9002105
:104240000F2001F07FF9142003F030F941F2B06142
:10425000102001F077F90121112001F073F90121FB
:10426000172001F06FF94FF49C71122001F06AF9E8
:104270004FF40061132001F065F90921292001F0B4
:1042800061F909212A2001F05DF90021A42001F043
:1042900059F90021502001F055F9EF21512001F08A
:1042A00051F90021522001F04DF940F23F11532005
:1042B00001F048F94FF41C51602001F043F901214D
:1042C000612001F03FF900216A2001F03BF9002153
:1042D000802001F037F90021812001F033F900211D
:1042E000822001F02FF90021832000E023E001F07B
:1042F00029F90021842001F025F90021852001F011
:1043000021F91321902001F01DF90021922001F0E4
:1043100019F90321932001F015F94FF488719520C4
:1043200001F010F940F27311072001F00BF932206F
:1043300003F0BCF8B8E43448808841F20551884263
:104340007ED10021072001F0FDF8322003F0AEF805
:104350004FF48E71122001F0F5F80121A42001F034
:10436000F1F80F21082001F0EDF808210A2001F0F2
:10437000E9F808210D2001F0E5F840F2077130203E
:1043800001F0E0F80721312001F0DCF840F2036190
:10439000322001F0D7F84FF4E061332001F0D2F879
:1043A00040F20221342001F0CDF80221352001F045
:1043B000C9F841F60F71362001F0C4F840F20771D8
:1043C000372001F0BFF80021382001F0BBF80021B0
:1043D000392001F0B7F840F207713A2001F0B2F845
:1043E00000213B2001F0AEF807213C2001F0AAF8A3
:1043F00000213D2001F0A6F8322003F057F80121FA
:10440000072001F09FF801E0400300200121172060
:1044100001F098F8322003F049F84FF4BD51102014
:1044200001F090F840F21721112001F08BF84FF4C1
:104430008F71122001F086F84FF47061132000E0B4
:1044400097E001F07FF800212A2001F07BF80A2193
:10445000292001F077F84FF49F71122001F072F8D3
:104460000021502001F06EF8EF21512001F06AF890
:104470000021522001F066F840F23F11532001F074
:1044800061F84FF41C51602001F05CF801216120BB
:1044900001F058F800216A2001F054F80021802032
:1044A00001F050F80021812001F04CF80021822019
:1044B00001F048F80021832001F044F80021842015
:1044C00001F040F80021852001F03CF813219020F4
:1044D00001F038F84FF44071922001F033F80521D3
:1044E000932001F02FF80021952001F02BF80021F6
:1044F000972001F027F80021982001F023F84FF4CD
:104500008071012001F01EF84FF4E061022001F0FB
:1045100019F841F23801032001F014F800210420B9
:1045200001F010F800210C2001F00CF800210F2000
:1045300001F008F80021202001F004F800212120DA
:1045400001F000F82121072000F0FCFF142002F008
:10455000ADFF6121072000F0F5FF142002F0A6FF57
:1045600040F27311072000F0EDFF142002F09EFFCF
:1045700095E4FE4880884BF2055188427ED10021A7
:10458000084600F0DFFF0021084600F0DBFF0021B5
:10459000084600F0D7FF0021084600F0D3FF0121B4
:1045A000A42000F0CFFF142002F080FF4FF41C5134
:1045B000602000F0C7FF40F20221082000F0C2FF97
:1045C0004FF40571302000F0BDFF43F2157131202A
:1045D00000F0B8FF40F20461322000F0B3FF40F673
:1045E0001661332000F0AEFF42F21121342000F0BA
:1045F000A9FF4FF4A851352000F0A4FF48F207515D
:10460000362000F09FFF41F20741372000F09AFF6B
:1046100041F20341382000F095FF2021392000F0BD
:1046200091FF1A21902000F08DFF0021102000F052
:1046300089FF0721112000F085FF0021122000F0E2
:1046400081FF0021132000F07DFF142002F02EFFD7
:104650004FF4E661102000F075FF40F23711112091
:1046600000F070FF142002F021FF4FF4DC711220E3
:1046700000F068FF142002F019FF00E083E04FF41F
:104680007061132000F05EFF80212A2000F05AFFA5
:104690004821292000F056FF142002F007FF4FF4B4
:1046A0008071012000F04EFF4FF4E061022000F025
:1046B00049FF41F23801032000F044FF40F202219B
:1046C000082000F03FFF00210A2000F03BFF0021FE
:1046D0000C2000F037FF00210D2000F033FF3021C7
:1046E0000E2000F02FFF0021502000F02BFFEF21C3
:1046F000512000F027FF0021522000F023FF40F25C
:104700003F11532000F01EFF4FF41C51602000F0B9
:1047100019FF0121612000F015FF00216A2000F03F
:1047200011FF1121902000F00DFF4FF4C061922085
:1047300000F008FF40F20241932000F003FF022145
:10474000942000F0FFFE142002F0B0FE01210720AB
:1047500000F0F8FE142002F0A9FE6121072000F00D
:10476000F1FE40F27311072000F0ECFE0021202042
:1047700000F0E8FE0021212000F0E4FE22210020CC
:1047800000F0E0FE11E3794880884CF20551884240
:104790007ED10021084600F0D5FE0021084600F039
:1047A000D1FE142002F082FE0021084600F0CAFE6D
:1047B0000021084600F0C6FE0021084600F0C2FEB7
:1047C0000021084600F0BEFE0121A42000F0BAFE40
:1047D000142002F06BFE4FF41C51602000F0B2FE7A
:1047E00040F60601082000F0ADFE40F203713020D3
:1047F00000F0A8FE0121312000F0A4FE04213220A7
:1048000000F0A0FE4FF48171332000F09BFE4FF4C6
:104810004071342000F096FE40F20311352000F084
:1048200091FE1F21362000F08DFE40F203713720EB
:1048300000F088FE0121382000F084FE0421392098
:1048400000F080FE1521902000F07CFE4FF4826184
:10485000102000F077FE40F24721112000F072FE98
:104860004FF4DE71122000F06DFE4FF460611320F2
:1048700000F068FE782002F019FE4FF480710120EC
:1048800000F060FE4FF40071022000F05BFE00E0DB
:1048900050E041F23001032000F054FE08210A20CC
:1048A00000F050FE00210C2000F04CFE20210E20D4
:1048B00000F048FE00210F2000F044FE00212020DF
:1048C00000F040FE0021212000F03CFE3D212A2086
:1048D00000F038FE142002F0E9FD2D21292000F01F
:1048E00031FE0021502000F02DFE4DF2EF0151204D
:1048F00000F028FE0021522000F024FE40F23F117B
:10490000532000F01FFE0021612000F01BFE00215B
:104910006A2000F017FE4FF44071922000F012FE62
:104920000521932000F00EFE4FF48071072000F067
:1049300009FE3AE20D48808844F2315188427CD128
:104940000121002000F0FEFD0A2002F0AFFD41F23F
:104950002861102000F0F6FD0E21122000F0F2FD7B
:1049600040F63921132000F0EDFD01E04003002066
:104970000A2002F09BFD4021112000F0E3FD5021B0
:10498000152000F0DFFD0A2002F090FD1E2112200C
:1049900000F0D8FD0A2002F089FD4FF4B15110203B
:1049A00000F0D0FD42F63921132000F0CBFD0A20A3
:1049B00002F07CFD4FF48071012000F0C3FD4FF444
:1049C0004071022000F0BEFD41F23801032000F0EA
:1049D000B9FD40F20221082000F0B4FD08210A20B0
:1049E00000F0B0FD0021302000F0ACFD40F20241AB
:1049F000312000F0A7FD4FF48371322000F0A2FDBA
:104A000040F20351332000F09DFD4FF482713420B9
:104A100000F098FD40F20131352000F093FD40F2A6
:104A20000771362000F08EFD40F20531372000F08E
:104A300089FD4FF40271382000E040E000F082FD73
:104A400040F60B71392000F07DFD0221412000F07D
:104A500079FD4FF41C51602000F074FD01216120AC
:104A600000F070FD4FF40471902000F06BFD4FF4E6
:104A70008571922000F066FD0421932000F062FD14
:104A80004FF48071A02000F05DFD0121072000F0AF
:104A900059FD2121072000F055FD2321072000F0BA
:104AA00051FD3321072000F04DFD40F23311072066
:104AB00000F048FD0021A02000F044FD75E1C04851
:104AC000808844F2355188427ED13021152000F093
:104AD00039FD10219A2000F035FD2021112000F031
:104AE00031FD43F22841102000F02CFD022112205C
:104AF00000F028FD41F23801132000F023FD2820AA
:104B000002F0D4FC1221084600F01CFD282002F01F
:104B1000CDFC43F22041102000F014FD43F2380197
:104B2000132000F00FFD462002F0C0FC00213020D1
:104B300000F008FD40F20241312000F003FD40F298
:104B40000731322000F0FEFC4FF44171332000F0B9
:104B5000F9FC0421342000F0F5FC40F2014135203D
:104B600000F0F0FC40F20771362000F0EBFC40F260
:104B70000531372000F0E6FC4FF4C261382000F028
:104B8000E1FC4FF4C261392000F0DCFC4FF480718D
:104B9000012000F0D7FC4FF44071022000F0D2FC5D
:104BA00041F23001032000F0CDFC40F6080108205E
:104BB00000F0C8FC08210A2000F0C4FC4FF41C518E
:104BC000602000F0BFFC00E031E00121612000F036
:104BD000B9FC4FF49F71902000F0B4FC4FF4807149
:104BE000922000F0AFFC4FF48071932000F0AAFCFB
:104BF0004FF44051A02000F0A5FC1021A32000F0AC
:104C0000A1FC0121072000F09DFC2121072000F0DC
:104C100099FC2321072000F095FC3321072000F0A8
:104C200091FC40F23311072000F08CFCBDE0644899
:104C3000808841F663118842F8D1E22000F072FCCE
:104C40001D2000F069FC022000F066FC042000F04A
:104C500063FC642002F048FCE02000F063FC0120CB
:104C600000F05AFC0A2002F021FCE02000F05AFC7F
:104C7000032000F051FC0C2002F018FC012000F091
:104C800051FC0A2002F012FCE62000F04BFC2F2021
:104C900000F042FCFF2000F03FFCFF2000F03CFC55
:104CA000B02000F03FFC202000F036FC002000F097
:104CB00033FC032000F030FC40F21F3000F02CFCED
:104CC000012000F029FC40F2DF1000F025FC00205C
:104CD00000F022FCB42000F025FC042000F01CFCB5
:104CE00040F21F4000F018FC002000F015FC2E20C0
:104CF00000F012FC002000F00FFC002000F00CFC83
:104D0000002000F009FC002000F006FCB62000F0B6
:104D100009FC022000F000FC4FF4037000F0FCFBE3
:104D2000002000F0F9FB172000F0F6FB152000F042
:104D3000F3FB002000F0F0FB002000F0EDFBF02082
:104D400000F0F0FB032000F0E7FB292000F0EAFB75
:104D5000D02000F0E7FB002000F0DEFBBE2000F0DA
:104D6000E1FB052000F0D8FBFE2000F0D5FB012080
:104D700000F0D2FB002000F0CFFB002000F0CCFBC5
:104D8000002000F0C9FBB82000F0CCFB032000F0AD
:104D9000C3FB012000F0C0FBBA2000F0C3FB0120E0
:104DA00000F0BAFB642000F031F80020FCF728FA8C
:104DB0000120044908604FF6FF70FCF7EBF910BDC5
:104DC000400300208081214210B50246012000E00E
:104DD00050430B1EA1F10104E1B2F9D110BD000056
:104DE00008B5034800880090BDF8000008BD000029
:104DF0000008006C10B50446204600F093FB052027
:104E000002F072FBFFF7ECFF10BD00002DE9F04748
:104E10000446BE2000F086FB052000F07DFB204606
:104E200003F0FCFF07464FF066320C4B04F00AF823
:104E3000054603F0AFFF1FFA80F9484600F06CFB0F
:104E4000012000F069FBFF2000F066FB002000F06D
:104E500063FB002000F060FBBDE8F087666604405D
:104E600070B5044600230026B748807901280BD18D
:104E7000B548808846F60401884205D0B24880884B
:104E800041F66311884208D1AF488079F0B9AE4845
:104E9000808841F66311884218D1082C15D2DFE8CA
:104EA00004F00406080A0C0E101206240DE0072474
:104EB0000BE0042409E0052407E0012405E00024B8
:104EC00003E0032401E0022400BF00BF9E48808865
:104ED00049F24131884217D09B48808846F6040148
:104EE000884211D09848808845F2103188420BD012
:104EF0009548808845F21051884205D092488088B4
:104F000041F6631188427DD1082C1CD2DFE804F001
:104F10000406090C0F12151800BF14E043F08003BB
:104F200011E043F040030EE043F0C0030BE043F018
:104F3000200308E043F0600305E043F0A00302E033
:104F400043F0E00300BF00BF7F48808845F2105166
:104F5000884202D14FF4585600E036267A488088BD
:104F600045F2103188420DD07748808845F21051C3
:104F7000884207D07448808841F66311884201D086
:104F800043F008037048808846F60401884201D146
:104F900043F002031946304600F0D4FA6A4880888C
:104FA00041F6631188421DD003F0200068B16648C5
:104FB000008865494988884214DA63480588408832
:104FC00061490880084645800CE05F4800885E49DA
:104FD0004988884206DD5C48058840885A4908802F
:104FE000084645805848808845F21051884254D17F
:104FF0005549488900F096FA002000F08DFA524990
:10500000498900E078E0491C88B200F08BFA002062
:1050100000F082FA4C494989891C88B200F082FA72
:1050200049490988491EC1F30F2000F075FA464925
:105030004989C91C88B200F075FA43490978491EAC
:10504000C8B200F069FA4049888900F06BFA002084
:1050500000F062FA3C498989491C88B200F062FA82
:10506000002000F059FA38498989891C88B200F07B
:1050700059FA35494988491EC1F30F2000F04CFA0E
:1050800031498989C91C88B200F04CFA2E498978C7
:10509000491EC8B200F040FA55E02B49488900F09B
:1050A00041FA002000F038FA002000F035FA2649D5
:1050B0000988491EC1F30F2000F02EFA2249097811
:1050C000491EC8B200F028FA1F49888900F02AFA60
:1050D000002000F021FA002000F01EFA1A49498849
:1050E000491EC1F30F2000F017FA17498978491EAD
:1050F000C8B200F011FA26E0082C1CD2DFE804F058
:1051000004070A0D0F12151843F0300313E043F0A3
:10511000100310E043F020030DE000BF0BE043F06C
:10512000380308E043F0280305E043F0180302E0E9
:1051300043F0080300BF00BF032643F48053194621
:10514000304600F0FFF970BD4003002010B5034663
:105150000C466748808849F24131884205D064484E
:10516000808845F21031884214D16149488900F0A5
:10517000D9F9181200F0D0F9D8B200F0CDF95C4995
:10518000888900F0CFF9201200F0C6F9E0B200F0F3
:10519000C3F9ABE05648808846F6040188421DD129
:1051A00053488079012804D151480088401EC01A14
:1051B00083B24F49488900F0B5F9181200F0ACF9F4
:1051C000D8B200F0A9F94A49888900F0ABF9201259
:1051D00000F0A2F9E0B200F09FF987E0444880882F
:1051E00041F66311884247D141488079A8B94048C7
:1051F0000088401EC01A83B23D49488900F092F9E8
:10520000002000F089F9002000F086F9181200F063
:1052100083F9D8B200F080F916E03549488900F0EA
:1052200081F9181200F078F9D8B200F075F9304918
:105230000988491EC1F30F2000F06EF92C49097846
:10524000491EC8B200F068F92949888900F06AF956
:10525000201200F061F9E0B200F05EF924494988BB
:10526000491EC1F30F2000F057F921498978491EE2
:10527000C8B200F051F939E01D48808845F210515C
:10528000884220D11A49488900F04CF9181200F0E0
:1052900043F917494989491C88B200F043F9D8B24B
:1052A00000F03AF91249888900F03CF9201200F028
:1052B00033F90F498989491C88B200F033F9E0B20B
:1052C00000F02AF912E00A488079012804D1084840
:1052D0000088401EC01A83B205494889194600F06B
:1052E00031F903498889214600F02CF910BD0000EE
:1052F000400300202DE9F84F80460E4617461C4615
:10530000B3462046E31704EB5373DB1021464FEA04
:10531000E47C04EB5C7C4FEAEC0CA4EBCC0CBCF121
:10532000000F02D04FF0010C01E04FF0000C63447D
:10533000224604EBD27C4FEA6C0C03FB0CF3DBB28D
:105340000093A7F12000C7B2002556E00C2C07D12E
:1053500007EB47002B4901EB800010F8059013E0A4
:10536000102C05D1284800EB071010F805900BE031
:10537000182C07D107EBC700244901EB800010F877
:10538000059001E0BDE8F88F4FF0000A2FE009F02A
:10539000800030B11E48028831464046FCF710F8C4
:1053A00007E00A9828B91B48028831464046FCF7B6
:1053B00007F84FEA49604FEA1069701C86B2164838
:1053C0004088B04200DCDDE7A6EB0B00A0420AD12A
:1053D0005E4608F101001FFA80F80F48008840453A
:1053E00000DCCFE706E00AF1010000F0FF0ABAF1A5
:1053F000080FCCDB00BF681CC5B200988542A5DB56
:1054000000BFBFE792970008069C0008F6A10008BD
:105410000A0000200C000020400300202DE9FF4F6F
:1054200081B0074691461E460E9D4FF0000A0024AB
:1054300039E0301B401EC1B20A20FFF7C5FCB9FBA2
:10544000F0F00A21B0FBF1F201FB1208BAF1000FF3
:1054500016D1701EA04213DDB8F1000F0ED100204E
:10546000AB4605EBDB71491001FB0471009088B27B
:105470002B4620220299FFF73DFF12E04FF0010A70
:105480000020AB4605EBDB71491001FB0471009075
:1054900088B208F13001CAB22B460299FFF72AFF01
:1054A00000BF601CC4B2B442C3DB05B0BDE8F08FDE
:1054B0002DE9F84704460D4690469946DDE909670F
:1054C00004F0FF0A08EB04001FFA80F809EB05005E
:1054D0001FFA80F916E0444502DB5446A81985B24C
:1054E0004D4500DB14E0002000903A783346294611
:1054F0002046FFF7FFFE304606EBD07104EB61015A
:105500008CB27F1C38787E2802DC38782028E2DADA
:1055100000BFBDE8F887000001490880704700001F
:105520000008006C0149088070470000FE07006C0D
:1055300002480089024908807047000040030020AB
:10554000FE07006C024A1080921C11807047000018
:10555000FE07006C1848806940F008001649886111
:105560000846806940F0400088611448006820F4D3
:105570007000124908600846006840F44010086056
:105580000E480C30006840F020000C490C310860D7
:105590000B48006820F4700009490860084600685C
:1055A00040F44010086006480C30006840F02000CD
:1055B00003490C310860704700100240000C0140A4
:1055C0000018014010B5074C07A0FAF74DFEA07A6D
:1055D00018B105200A49086002E001200849086066
:1055E00010BD0000440900206C65617665206C6F79
:1055F0007720706F776572206D6F64650D0A00000B
:10560000500200202DE9FC4104460D4616466B462B
:1056100006224321682000F016FA0746BFB99DF81C
:1056200001009DF8001040EA012000B220809DF8A2
:1056300003009DF8021040EA012000B228809DF886
:1056400005009DF8041040EA012000B23080384681
:10565000BDE8FC812DE9F84F6B460222412168200C
:1056600000F0F1F99DF801009DF8001040EA0120DA
:105670000FFA80FA504603F0BAFB804600220B4B2B
:1056800003F030FA06460A4A0A4B03F083F904464F
:1056900003F04EF983460849584603F02FFF0446AD
:1056A00003F0DCFE00B2BDE8F88F0000004075405A
:1056B000A4703D0AD74342400000C84210B5002004
:1056C0000E4908600E48006820F470400C490860DC
:1056D0000846006840F44050086000200949C1F8BD
:1056E000AC0100F011F801200449086000F00CF84A
:1056F00000200449C1F8A80110BD0000A881214282
:10570000040C01400080214210B5022001F0ECFEA3
:1057100010BD00000C48806940F008000A4988610B
:105720000A48006820F47F4008490860084600687D
:1057300040F44C50086005480830006840F4406070
:10574000024908310860704700100240040C014013
:1057500010B500200E4908600E48006820F4704023
:105760000C4908600846006840F440500860012079
:105770000949C1F8AC01FFF7C7FF012004490860DF
:10578000FFF7C2FF00200449C1F8A80110BD0000C6
:10579000A8812142040C01400080214270B50546D9
:1057A00000241648006820F4704014490860084638
:1057B000006840F400400860002614E00020104912
:1057C0000860FFF7A1FF01200E49C1F8A80160069B
:1057D000040E0B487C38006808B1601CC4B2FFF7A7
:1057E00093FF701CC6B2082EE8DB15B9FFF7B0FFB7
:1057F00001E0FFF763FF204670BD0000040C01408C
:10580000A88121420080214270B5044612480068F8
:1058100020F47040104908600846006840F4405089
:10582000086000200D490860002512E0E0090B49DE
:10583000091D08606006040E01200949C1F8A8018D
:10584000FFF762FF002005490860FFF75DFF681C55
:10585000C5B2082DEADB70BD040C0140A8812142CD
:105860000080214210B50E48006820F470400C49B9
:1058700008600846006840F440500860012009496B
:1058800008600949C1F8A801FFF73EFF002005495B
:105890000860FFF739FF00200349C1F8A80110BDD7
:1058A000040C0140AC8121420080214210B50E4819
:1058B000006820F470400C4908600846006840F415
:1058C000405008600020094908600949C1F8AC014E
:1058D000FFF71AFF0120054908600549C1F8AC012E
:1058E000FFF712FF10BD0000040C0140A881214207
:1058F0000080214210B500241448006820F4704054
:10590000124908600846006840F400400860012021
:105910000F490860FFF7F8FE01200E49C1F8A80101
:10592000FFF7F2FE07E0601CC4B2FA2C03DDFFF7BC
:10593000BDFF012010BD0648803800680028F2D164
:105940000349091F086000BFF4E70000040C014090
:10595000AC8121420080214210B52948806940F085
:105960000400274988612748006820F070402549D5
:1059700008600846006840F0405008600120FBF7CE
:10598000BBFB002020490860FFF7C4FE80216B208C
:1059900000F0DDF8642001F089FD00216B2000F0AB
:1059A000D6F8032000F091F8002000F086F83220AD
:1059B00000F0B0F80021382000F0C9F800216A207A
:1059C00000F0C5F80021232000F0C1F88021372025
:1059D00000F0BDF8752000F019F80446682C0BD1D2
:1059E00001216B2000F0B3F800216C2000F0AFF82B
:1059F000322000F08FF801E0012010BD0020FCE70C
:105A00000010024004080140BC01214270B5044668
:105A1000FFF728FFD020FFF7F7FEFFF76BFF2046C8
:105A2000FFF7F2FEFFF766FFFFF71CFFD120FFF73D
:105A3000EBFEFFF75FFF0020FFF7B0FE0546FFF724
:105A400035FF284670BD2DE9F04106460F46144645
:105A50001D46FFF707FF002141EA4601C8B2FFF7E4
:105A6000D3FEFFF747FF20B1FFF720FF0120BDE87D
:105A7000F0813846FFF7C8FEFFF73CFFFFF7F2FE64
:105A8000012101EB4601C8B2FFF7BEFEFFF732FF6E
:105A90000DE0012C04D10020FFF780FE287003E008
:105AA0000120FFF77BFE2870601EC4B26D1C002C25
:105AB000EFD1FFF7FBFE0020D9E710B50446E00662
:105AC000010E1C2000F043F810BD10B50446E0069E
:105AD000010E1B2000F03BF810BD70B504460025F8
