:020000040800F2
:10000000000400201702000825020008270200084B
:10001000290200082B0200082D0200080000000041
:100020000000000000000000000000002F02000897
:100030003102000800000000330200083502000809
:100040005F0D00083702000837020008F938000881
:100050003702000837020008E139000837020008BB
:10006000B10B0008D70B0008030C0008370200088A
:10007000370200083702000837020008370200087C
:1000800037020008370200083702000859590008F3
:100090005B590008370200083702000837020008E1
:1000A000370200083702000837020008370200084C
:1000B00037020008990D00083702000837020008CF
:1000C000370200083702000837020008370200082C
:1000D00037020008DB080008370200083702000872
:1000E0003702000837020008635900083702000889
:1000F00037020008370200083702000837020008FC
:100100003702000837020008510F000837020008C4
:1001100037020008370200083702000837020008DB
:1001200037020008370200083702000837020008CB
:1001300000F002F800F05FF80AA090E8000C82449A
:100140008344AAF10107DA4501D100F054F8AFF277
:10015000090EBAE80F0013F0010F18BFFB1A43F0A5
:1001600001031847846F0000A46F00000A444FF099
:10017000000C10F8013B13F0070408BF10F8014B06
:100180001D1108BF10F8015B641E05D010F8016B4B
:10019000641E01F8016BF9D113F0080F1EBF10F8AF
:1001A000014BAD1C0C1B09D16D1E58BF01F801CBD2
:1001B000FAD505E014F8016B01F8016B6D1EF9D555
:1001C0009142D6D37047000000230024002500266A
:1001D000103A28BF78C1FBD8520728BF30C148BFAA
:1001E0000B607047782905F03B86002070471FB5EB
:1001F0001FBD10B510BD05F0EBFE1146FFF7F7FF70
:1002000000F058F805F009FF03B4FFF7F2FF03BC54
:1002100000F054FB70470B4880470B4981F3088876
:100220000A480047FEE7FEE7FEE7FEE7FEE7FEE7D7
:10023000FEE7FEE7FEE7FEE705480649044A064BEF
:100240007047000015020008880A002031010008EC
:1002500088020020880A00208802002002468A4284
:1002600001D9501A7047881AFCE79049896941F012
:1002700004018E4A916138B18D49096889B221F033
:1002800002018B4A116014E08949096889B241F082
:100290000201874A11608749096821F47F21854A54
:1002A00011601146096841F44C3111600021824A05
:1002B000116070471FB54FF00008C146092000F0DB
:1002C000A4FA482000F03EF94FF41651482000F0FF
:1002D0003FFB01F0D5F900F0ADFB00F0E3FB03F0CC
:1002E00089FD03F0B9FB1F207449088074A0102118
:1002F0000B46C822CDE900106E211E2003F0AFF896
:1003000018E074A010210B46C822CDE9001082210C
:100310001E2003F0A4F8C82000F04CF94FF6FF703F
:100320009223EF22822100901E2002F018FEC820A6
:1003300000F040F903F0F2FD0028E2D169A010219D
:100340000B46C822CDE9001082211E2003F087F859
:1003500003F07BFE4FF4E16000F02CF90020FFF782
:1003600084FF4FF4967000F025F90120FFF77DFF20
:1003700005F08DFA05F070FA04F05CFC5EA0102127
:100380000B46C822CDE9001096211E2003F067F825
:100390008AE05D480068814521D05B48006800F034
:1003A000FF09B9F1050F0DD158A010210B46C82245
:1003B000CDE90010AA211E2003F051F80020584971
:1003C00008600CE057A010210B46C822CDE90010B0
:1003D000AA211E2003F043F801205149086002A819
:1003E00003F016FE002843D1012000F086FB0446EE
:1003F0009DF80A009DF8091040EA012005B29DF819
:100400000C009DF80B1040EA012006B2032C01D12C
:1004100047F00107012C01D147F00207F2B2E9B21F
:100420000023384605F04FFA43A010210B46C8229E
:10043000CDE90010D2211E2003F011F810200A236C
:100440002A46D2210090782002F060FF3BA01021C4
:100450000B46C822CDE90010E6211E2002F0FFFF66
:1004600010200A233246E6210090782002F04EFF49
:1004700025480068052803D100202949086002E0CA
:1004800001202749086008F1010000F0FF08B8F1D9
:10049000C80F09D14FF000082948006808B90120A9
:1004A00000E000202649086073E7000000100240C9
:1004B000405C004004080140B001214210000020CF
:1004C0005468697320697320726563656976657223
:1004D000000000004E524632344C303120657272BA
:1004E0006F7200004E524632344C30312069732016
:1004F000726561647900000055534220697320726F
:1005000065616479000000002801002055534220F5
:10051000436F6E6E656374656420202020000000C8
:100520009401234255534220646973436F6E6E6594
:100530006374656420000000583A0000593A0000D6
:10054000948121424FF0E021096921F004014FF02C
:10055000E0221161C21700EB5272C2F3C702234BB3
:100560001A701946097801EB4102C2EBC1114FF62E
:10057000FF7202EAC1011E4A1180704701461B4A00
:1005800012784A434FF0E0235A6100229A61012217
:100590001A6100BF4FF0E022106900F001021AB1A9
:1005A00000F48032002AF5D000224FF0E0231A61D7
:1005B0009A61704701460E4A12884A434FF0E02381
:1005C0005A6100229A6101221A6100BF4FF0E022B5
:1005D000106900F001021AB100F48032002AF5D04F
:1005E00000224FF0E0231A619A617047000000205A
:1005F00002000020A64A0A400243A64B1A60704738
:100600000146072323EA01021202A24B1B1D1868B0
:100610004FF6FF031840A04B184310439D4B1B1D82
:10062000186070472DE9F0410746884614461D467C
:100630002846FFF7E5FFC5F1040007FA00F60F2092
:10064000284100EA0800064306F00F06E21704EB13
:10065000D2625211920002F1E022D2F8002121462A
:10066000E31704EBD3635B11A4EB431C012303FAF0
:100670000CF31A432046E31704EBD3635B119B0092
:1006800003F1E023C3F800218448005D40EA06102E
:1006900082490855BDE8F08170B504460B46CE1777
:1006A00001EB9676C6F38700CE1701EB9676B6106F
:1006B000A1EB8606B606350E794B9B6943F0010324
:1006C000774EB3614FEAB63353F820300F26AE4071
:1006D000B343744E46F82030334653F8203004FAC2
:1006E00005F61E436F4B43F820606F4B1B680126D5
:1006F0008E4033436C4E336002F0010343B16A4BCA
:100700000C331B6801268E403343674E0C36336032
:1007100002F0020343B1644B08331E6801238B408F
:100720001E43614B08331E6070BD00B500205C495C
:100730000861C8601420486100208861C8610846CB
:10074000006840F0010008600846406857490840CA
:1007500053494860084600685549084050490860B8
:100760000846006820F4802008600846406820F4AD
:10077000FE0048600020886000214FF00060FFF715
:1007800039FF00BD30BF704772B6704762B6704720
:1007900000B540480830006840F004003D49083189
:1007A00008603F48C06940F080503D49C8614148F9
:1007B000406840F480703F4948600846006840F057
:1007C000040008600846006840F002000860FFF777
:1007D000D9FF00BD3048001D2E49091D0860704733
:1007E000014649062E4A926942F001022C4B9A6159
:1007F0002C4A083A526822F0E0622A4B083B5A60C1
:100800001A4652680A435A60704730B504460025BC
:10081000FFF78BFF2248006840F4803020490860D1
:1008200000BF1F480068400C0028FAD04FF48060D9
:100830001B494860A01EC4B20846406840EA844094
:1008400048600846406840F4803048601A480068B4
:1008500040F03200184908601148006840F080708C
:100860000F49086000BF0E480068400E0028FAD00B
:100870000B48406840F002000949486005E008481C
:100880004068C0F3870505F00305022DF7D130BDA0
:1008900080FFFF1F08ED00E00000FA0500E400E023
:1008A0000010024008000140000401400000FFF871
:1008B000FFFFF6FE0070004000200240014600BF2E
:1008C000704700BF554A128802F04002002AF9D052
:1008D000C2B2524B1B1D1A8070475049098801F063
:1008E000200111B34D49091D0988C8B24C49098836
:1008F00001F40041C9B94A49098801F4804161B154
:100900000A2803D00021464A118020E04449098882
:1009100041F40041424A118019E00D2806D14049B6
:10092000098841F480413E4A118010E03C49098821
:10093000C1F30D013B4A505439490988491C384AD2
:10094000118011460988C72901DD002111807047F7
:100950002DE9F05F05460E46300105F0AFFC8146FB
:10096000314905FB01F005F0A9FC8246494605F036
:10097000C3FB0746384605F081FC84B2204605F0EB
:100980009DFC8346394605F079FD82464FF0834150
:1009900005F0A8FC814605F071FC80464FF6FF701B
:1009A00000EA041404EB080084B22048806940F097
:1009B00004001E4988610846806940F480408861CF
:1009C0001B48006820F47F601949086008460068E9
:1009D00040F40B6008601548C06840F4804013493B
:1009E000C8600846C06820F48040C8600B480830E2
:1009F0000480001D008842F20C01084307490C31B5
:100A000008800846008840F0200008800223252244
:100A100003210846FFF706FEBDE8F09F00380140BD
:100A2000080000203001002040420F00001002406A
:100A3000040801401848806940F0080016498861A0
:100A40000846806940F0400088611448006820F43E
:100A50007000124908600846006840F440100860C1
:100A60000E480C30006840F020000C490C31086042
:100A70000B48006820F470000949086008460068C7
:100A800040F44010086006480C30006840F0200038
:100A900003490C310860704700100240000C01400F
:100AA000001801403A48806940F0040038498861E4
:100AB0000846806940F0400088613648006820F0B0
:100AC0000F00344908600846006840F008000860DC
:100AD00031480068314908402F49086008460068DD
:100AE0002F4908432C4908602B480C30006840F01F
:100AF0001C0029490C310860704710B5044614B138
:100B00000120284908702748007858B32648006813
:100B100058B12548001F006838B1234808380068DC
:100B200018B12248006801281CD10A20FFF742FDB5
:100B300000201C4908701C48006808B9012010BD3D
:100B40001948001F006808B90220F8E7164808385D
:100B5000006808B90320F2E714480068012815D19D
:100B60000420ECE71048006801280FD10E48001F50
:100B7000006801280AD10C4808380068012805D10E
:100B80000A48006810B90120064908700020D6E71D
:100B9000001002400008014000180140FF00F0FF73
:100BA000008808000A0000201001234200012142B1
:100BB00010B50A20FFF7FEFC3948006838B93948FB
:100BC000006808B9012000E00020364908600420D0
:100BD0003549086010BD10B50A20FFF7EBFC30481E
:100BE000001D006848B92E488C30006808B9012003
:100BF00000E000202A498C31086008202A4908605A
:100C000010BD10B50A20FFF7D5FC25480830006854
:100C100088B92448006808B9012000E00020214973
:100C200008602248D0F8940108B9012000E00020B3
:100C30001B498C31086010201B49086010BD10B59D
:100C4000FFF730FF022200210846FFF725FD0122B1
:100C500002210420FFF720FD012203210420FFF7D9
:100C60001BFD012204210846FFF716FD0223062280
:100C700003211846FFF7D6FC02230822194618461E
:100C8000FFF7D0FC0223092201211846FFF7CAFC16
:100C900002230A2200211846FFF7C4FC10BD000001
:100CA00008012342948121421404014000002342A0
:100CB00045F25552334B1A601A46506091604AF61D
:100CC000AA221A604CF6CC421A6070474AF6AA2053
:100CD0002C490860704770B506460C4615462A48F0
:100CE000C06940F400602849C86128480078304055
:100CF000264908702648006840EAC5102449086063
:100D0000084600684FF6807108402149086008468F
:100D1000006820430860081F00681C4909780843E0
:100D20001B49091F08600846006840F08000086001
:100D30000223002203211846FFF774FC0020144907
:100D4000091D0860081F006840F40070091F086052
:100D500070BD00F07F010E4A121F1160704700B590
:100D60000A480078FFF7F5FF00200949091D0860CF
:100D70000848006808B9012000E000200549086023
:100D800000BD000000300040001002400B000020B9
:100D9000042C004094012342BB48008800F001006D
:100DA00038B1BA48006808B9012000E00020B7490E
:100DB0000860B548008820F00100B34908807047FA
:100DC00070B505460C46B248C06940F00200B04913
:100DD000C861AD481C300580001F0480AA48001F70
:100DE000008840F00100A849091F0880A648103873
:100DF000008840F00100A4491039088002231D2218
:100E000003210120FFF70EFC70BDA14AD26942F018
:100E100002029F4BDA611A46926942F008029A6117
:100E20009C4A126822F470029A4B1A601A461268A1
:100E300042F430021A60964A926942F00102944BE1
:100E40009A61954A526822F44062934B5A601A465E
:100E5000526842F400625A608B4A1C321080121FA2
:100E60001180894A0832128842F4E042864B0833E6
:100E70001A801A46128842F400621A80824A10329E
:100E8000128842F01002804B10331A80DA137E4B26
:100E9000103B1A801A46128842F001021A807047ED
:100EA00070B504460D467A48C06940F0080078499C
:100EB000C8610846806940F004008861774800688E
:100EC00020F00F00754908600846006840F00800EF
:100ED000086072480C30006870490C310860704836
:100EE0000480001F05806E481438008840F001001F
:100EF0006B49143908800846008808800846008835
:100F0000088067480C38008865490C390880084615
:100F1000008840F00100088061482038008840F0D7
:100F200002005F49203908800846008840F001002F
:100F300008805B482C38008840F0010058492C3963
:100F400008800223322200211846FFF76BFB70BD98
:100F500053491C3908885349097801F08001002958
:100F60004ED100F00101D1B14E49097801F04001A4
:100F7000A9B14C49097801F03F013F290AD14949FB
:100F8000097841F08001474A11704FF6FF71464AD7
:100F9000118004E043490978491C424A117000F06D
:100FA000020169B33F49097801F0400199B13D4917
:100FB000097841F080013B4A1170394908310988AC
:100FC000394A118036490C39098821F00201344A26
:100FD0000C3A118014E00021324A1170324A11801B
:100FE0003049097841F040012E4A117000212C4A05
:100FF000083A1180111F098841F00201121F118067
:101000000021274A1C3A11807047214AD26942F0D8
:1010100004021F4BDA611A46926942F008029A6193
:101020001C4A126822F07F421A4B1A601A46126854
:1010300042F096421A601D4A1080121F11801B4A0E
:10104000143A128842F07002184B143B1A801A4668
:10105000128842F008021A80144A0C3A128842F0B0
:101060000202124B0C3B1A801A46128842F001020F
:101070001A8080220D4B2C3B1A801A46128842F0AF
:1010800001021A80704700001004004094012342BE
:1010900000100240000C0140000001400008014027
:1010A0002C0C00400C0000200E0000202C080040FA
:1010B000F74908807047F649891C08807047F44852
:1010C000801C00887047F24A1080921C1180704783
:1010D00010B504462046FFF7EBFF0520FFF74EFA58
:1010E000FFF7EDFF10BDEB48C079E9490880704774
:1010F000E749891C0880704730B5014601F01F049C
:10110000C1F34513CA0AE50205EB43151544A8B21D
:1011100030BD00BF011EA0F10102D0B2FAD170476C
:1011200010B503460C46DB48808849F241318842BD
:1011300005D0D848808846F60401884214D1D549A4
:10114000087AFFF7B5FF1812FFF7B5FFD8B2FFF71F
:10115000B2FFD049487AFFF7ABFF2012FFF7ABFF91
:10116000E0B2FFF7A8FF12E0CA488079012804D155
:10117000C8480088401EC01A83B2C649087A19467A
:10118000FFF7A1FFC349487A2146FFF79CFF10BD36
:101190002DE9F04105460E4600240027A046BD4833
:1011A0000088A84203DDBB484088B04202DC002032
:1011B000BDE8F08131462846FFF7B2FFB548808888
:1011C00049F24131884205D0B248808846F6040190
:1011D000884203D12E20FFF76BFF02E02220FFF7A9
:1011E00067FFAC48808849F22031884202D1022052
:1011F000FFF78FFFA648801C008800B10024022062
:10120000FFF787FFA248801C0488A248808849F223
:10121000413188420CD10220FFF77BFF9C48801CA3
:10122000B0F80080E7B24FF6FF7000EA072708E049
:101230009848808846F60401884202D19448801C70
:1012400004889448808849F22531884216D0914814
:10125000808844F23551884210D08E488088091F1A
:1012600088420BD08B48808848F68911884205D087
:10127000884880884BF20551884201D1204697E783
:101280008448808849F24131884207D1E012C00287
:10129000B91240EA411040EAE82089E72046FFF70A
:1012A0002BFF85E700B57B48808849F241318842B1
:1012B00005D07848808846F60401884203D1292069
:1012C000FFF7F6FE04E040F273110720FFF7FBFE84
:1012D00000BD00B56F48808849F24131884205D091
:1012E0006C48808846F60401884203D12820FFF725
:1012F000DFFE03E000210720FFF7E5FE00BD70B52B
:101300000446002300266348807901281ED16148E5
:10131000808846F60401884218D0082C15D2DFE8F0
:1013200004F00406080A0C0E101206240DE007242F
:101330000BE0042409E0052407E0012405E0002473
:1013400003E0032401E0022400BF00BF514880886D
:1013500049F24131884205D04E48808846F6040162
:1013600088427CD1082C1CD2DFE804F00406090C6A
:101370000F12151800BF14E043F0800311E043F092
:1013800040030EE043F0C0030BE043F0200308E00D
:1013900043F0600305E043F0A00302E043F0E00304
:1013A00000BF00BF362643F008033A48808846F65F
:1013B0000401884201D143F0020319463046FFF789
:1013C00082FE03F0200068B1324800883149498824
:1013D000884214DA2F48058840882E49088008463C
:1013E00045800CE02B4800882A494988884206DD60
:1013F00028480588408827490880084645802549AF
:10140000087AFFF755FE0020FFF755FE0020FFF792
:1014100052FE20490988491EC1F30F20FFF74BFEF9
:101420001C490978491EC8B2FFF745FE1949487A98
:10143000FFF73EFE0020FFF73EFE0020FFF73BFED9
:1014400014494988491EC1F30F20FFF734FE1149A2
:101450008978491EC8B2FFF72EFE36E0FFE7082C58
:1014600020D2DFE804F004070A0D0F12191C43F024
:10147000300317E043F0100314E043F0200311E0C1
:1014800000BF0FE043F038030CE043F0280309E00D
:10149000FE07006CF801002043F0180302E043F05F
:1014A000080300BF00BFFE48808848F689118842C3
:1014B00004D1112646F24000034302E0032643F420
:1014C000805319463046FFF7FEFD70BD30B5044627
:1014D0000D4629462046FFF723FEFFF704FEF1489C
:1014E0000088F149088030BD30B503460C461546EA
:1014F000EB48808849F24131884205D0E84880882D
:1015000046F60401884214D1E549087AFFF7D0FD78
:101510001812FFF7D0FDD8B2FFF7CDFDE049487AA9
:10152000FFF7C6FD2012FFF7C6FDE0B2FFF7C3FDCF
:1015300012E0DB488079012804D1D9480088401E98
:10154000C01A83B2D649087A1946FFF7BCFDD449C0
:10155000487A2146FFF7B7FDD148C079D249891EA4
:101560000880881C058030BD10B50446002C3DD194
:10157000CB498871F02008804FF4A070488008465D
:10158000808849F24131884205D0C548808846F6B6
:101590000401884214D12C20C149C8712A20087244
:1015A0002B2048720846808846F6040188424ED1B6
:1015B0004FF4A070BA4908804FF4F070488046E0BC
:1015C000B748808848F68911884207D12220B4495B
:1015D000C8714E2008724F20487238E02220B0496E
:1015E000C871202008722120487230E0AC48808801
:1015F00046F6040188422AD00120A94988714FF497
:10160000A0700880F02048800846808849F2413167
:10161000884207D12C20A249C8712A2008722B20A9
:10162000487214E09E48808848F68911884207D1A4
:1016300022209B49C8714F2008724E20487206E054
:1016400022209749C871212008722020487200206A
:10165000FFF755FE10BD70B504460026904805887A
:101660004088454300210846FFF75AFDFFF73BFD40
:1016700000BF02E08C480480761CAE42FAD370BDF5
:1016800010B58A48406940F480708849486108462E
:10169000806940F0080088610846806940F02000B9
:1016A00088610846806940F040008861084680698A
:1016B00040F4807088617E48006820F00F007C490B
:1016C00008600846006840F0030008607948006838
:1016D0007949084077490860084600687749084317
:1016E00074490860081F006800F0FF20091F0860A7
:1016F0000846006840F0BB10086071480068002090
:101700006F4908600846006840F0BB300860081F59
:10171000006820F07040091F08600846006840F02B
:10172000304008606748406820F470206549486090
:101730000846406840F4302048600846006820F0C1
:101740000F0008600846006840F00B0008600020A9
:101750004FF020418861C8615B4908604FF020402C
:10176000806940F480504FF02041886108468069CC
:1017700040F4804088610846806940F0100088612C
:101780000846C069C8610846C06940F00100C861E8
:101790000846C06940F47060C8614B480068C1F8F1
:1017A0001C0149480068C1F81C010846D0F81C011A
:1017B00040F44070C1F81C010846806940F0010007
:1017C00088613220FEF7F6FE01210020FFF77BFC46
:1017D0003220FEF7EFFE0020FFF77AFC30498880C8
:1017E00008468088FF280ADB084680884FF6FF718C
:1017F000884204D02A488088B0F5134F4BD1D320BB
:10180000FFF756FCFFF75BFCFFF759FCFFF757FCAF
:1018100023498880084680884FF6FF7101EA00203E
:101820001F498880FFF74BFC1D49898808431C49E4
:1018300088800846808849F2413188421BD0BF2009
:10184000FFF736FCFFF73BFCFFF739FCFFF737FCEF
:10185000FFF735FC12498880084680884FF6FF71F3
:1018600001EA00200E498880FFF729FC0C4989888D
:1018700008430B4988800A48808849F241318842F0
:1018800009D00748808846F60401884203D049F20F
:10189000413003498880024881880CA01EE0000086
:1018A000F8010020100000200008006C0010024029
:1018B000000C01400414014000F0FF00BB0B00BB12
:1018C00004180140002001401C0100A0204C4344AA
:1018D0002049443A25780D0A0000000004F080FAFF
:1018E000FE48808849F2413188427CD1CF20FFF701
:1018F000DFFB0020FFF7DFFBC120FFF7DCFB302020
:10190000FFF7D9FBED20FFF7D3FB6420FFF7D3FBF4
:101910000320FFF7D0FB1220FFF7CDFB8120FFF75C
:10192000CAFBE820FFF7C4FB8520FFF7C4FB1020AB
:10193000FFF7C1FB7A20FFF7BEFBCB20FFF7B8FB18
:101940003920FFF7B8FB2C20FFF7B5FB0020FFF78D
:10195000B2FB3420FFF7AFFB0220FFF7ACFBF72010
:10196000FFF7A6FB2020FFF7A6FBEA20FFF7A0FB6E
:101970000020FFF7A0FB0020FFF79DFBC020FFF732
:1019800097FB1B20FFF797FBC120FFF791FB01207E
:10199000FFF791FBC520FFF78BFB3020FFF78BFB98
:1019A0003020FFF788FBC720FFF782FBB720FFF747
:1019B00082FB3620FFF77CFB4820FFF77CFB3A20B8
:1019C000FFF776FB5520FFF776FBB120FFF770FBA2
:1019D0000020FFF770FB1A20FFF76DFBB620FFF722
:1019E00067FB0A2000E099E0FFF765FBA220FFF704
:1019F00062FBF220FFF75CFB0020FFF75CFB262078
:101A0000FFF756FB0120FFF756FBE020FFF750FBE6
:101A10000F20FFF750FB2A20FFF74DFB2820FFF790
:101A20004AFB0820FFF747FB0E20FFF744FB082086
:101A3000FFF741FB5420FFF73EFBA920FFF73BFBDC
:101A40004320FFF738FB0A20FFF735FB0F20FFF795
:101A500032FB0020FFF72FFB0020FFF72CFB0020BC
:101A6000FFF729FB0020FFF726FBE120FFF720FB13
:101A70000020FFF720FB1520FFF71DFB1720FFF7C5
:101A80001AFB0720FFF717FB1120FFF714FB0620B6
:101A9000FFF711FB2B20FFF70EFB5620FFF70BFB88
:101AA0003C20FFF708FB0520FFF705FB1020FFF7A0
:101AB00002FB0F20FFF7FFFA3F20FFF7FCFA3F2061
:101AC000FFF7F9FA0F20FFF7F6FA2B20FFF7F0FAED
:101AD0000020FFF7F0FA0020FFF7EDFA0120FFF7F2
:101AE000EAFA3F20FFF7E7FA2A20FFF7E1FA0020A1
:101AF000FFF7E1FA0020FFF7DEFA0020FFF7DBFA3C
:101B0000EF20FFF7D8FA1120FFF7D2FA7820FEF77E
:101B100051FD2920FFF7CCFA01F016BA6F488088F2
:101B200046F6040188427CD11120FFF7C1FA142047
:101B3000FEF740FDD020FFF7BBFA0720FFF7BBFA06
:101B40004220FFF7B8FA1D20FFF7B5FAD120FFF7C2
:101B5000AFFA0020FFF7AFFA1A20FFF7ACFA09201E
:101B6000FFF7A9FAD220FFF7A3FA0120FFF7A3FAA3
:101B70002220FFF7A0FAC020FFF79AFA1020FFF703
:101B80009AFA3B20FFF797FA0020FFF794FA022019
:101B9000FFF791FA1120FFF78EFAC520FFF788FAB8
:101BA0000320FFF788FAC820FFF782FA0020FFF72A
:101BB00082FA2520FFF77FFA2120FFF77CFA052023
:101BC000FFF779FA0020FFF776FA0A20FFF773FA99
:101BD0006520FFF770FA2520FFF76DFA7720FFF7F1
:101BE0006AFA5020FFF767FA0F20FFF764FA002027
:101BF000FFF761FAF820FFF75BFA0120FFF75BFAC5
:101C0000FE20FFF755FA0020FFF755FA0220FFF7F4
:101C100052FA2020FFF74CFA3620FFF749FA082045
:101C200000E02CE0FFF747FA3A20FFF741FA552091
:101C3000FFF741FA2B20FFF73BFA0020FFF73BFAB2
:101C40000020FFF738FA0120FFF735FA3F20FFF7B1
:101C500032FA2A20FFF72CFA0020FFF72CFA002096
:101C6000FFF729FA0120FFF726FADF20FFF723FA12
:101C70007820FEF79FFC2920FFF71AFA4CE7174857
:101C8000808849F2253188427DD147F6F001E52070
:101C9000FFF719FA4FF480710120FFF714FA4FF49F
:101CA000E0610220FFF70FFA41F230010320FFF755
:101CB0000AFA00210420FFF706FA40F20221082068
:101CC000FFF701FA00210920FFF7FDF900210A20A2
:101CD000FFF7F9F900210C2002E00000F8010020D4
:101CE000FFF7F1F900210D20FFF7EDF900210F209A
:101CF000FFF7E9F900211020FFF7E5F9072111208E
:101D0000FFF7E1F900211220FFF7DDF90021132090
:101D1000FFF7D9F900210720FFF7D5F941F29061CB
:101D20001020FFF7D0F940F227211120FFF7CBF95F
:101D30009D211220FFF7C7F94FF4C8511320FFF778
:101D4000C2F925212920FFF7BEF90D212B20FFF72D
:101D5000BAF907213020FFF7B6F940F203313120FC
:101D6000FFF7B1F903213220FFF7ADF940F2062168
:101D70003520FFF7A8F908213620FFF7A4F940F233
:101D80000641372000E05CE0FFF79DF94FF4417118
:101D90003820FFF798F907213920FFF794F940F22E
:101DA00002613C20FFF78FF908213D20FFF78BF9F6
:101DB00000215020FFF787F9EF215120FFF783F929
:101DC00000215220FFF77FF940F23F115320FFF727
:101DD0007AF94FF427416020FFF775F9012161205E
:101DE000FFF771F900216A20FFF76DF900218020CB
:101DF000FFF769F900218120FFF765F900218220B2
:101E0000FFF761F900218320FFF75DF900218420AD
:101E1000FFF759F900218520FFF755F9102190208F
:101E2000FFF751F94FF4C0619220FFF74CF940F2EF
:101E300033110720FFF747F922210020FFF743F96C
:101E40006AE6FE48808849F2283188427ED141F214
:101E50008F01EC20FFF737F941F23421EF20FFF733
:101E600032F94FF480710120FFF72DF94FF4E06152
:101E70000220FFF728F941F230010320FFF723F990
:101E800000210420FFF71FF940F202210820FFF78C
:101E90001AF900210920FFF716F900210A20FFF79F
:101EA00012F901210C20FFF70EF900210D20FFF798
:101EB0000AF900210F20FFF706F900211020FFF793
:101EC00002F907211120FFF7FEF800211220FFF789
:101ED000FAF800211320FFF7F6F801210720FFF799
:101EE000F2F83220FEF766FB41F290411020FFF736
:101EF000EAF840F227211120FFF7E5F83220FEF73B
:101F000059FB8A211220FFF7DEF83220FEF752FB40
:101F10004FF4D0511320FFF7D6F806212920FFF700
:101F2000D2F80D212B20FFF7CEF83220FEF742FB2E
:101F300000212020FFF7C7F800212120FFF7C3F878
:101F40003220FEF737FB0021302000E074E0FFF77D
:101F5000BAF840F204613120FFF7B5F840F20531DC
:101F60003220FFF7B0F800213520FFF7ACF840F63B
:101F700009413620FFF7A7F84FF401713720FFF72A
:101F8000A2F840F201313820FFF79DF840F20771C6
:101F90003920FFF798F800213C20FFF794F840F62D
:101FA0000A213D20FFF78FF83220FEF703FB0021C6
:101FB0005020FFF788F8EF215120FFF784F8002127
:101FC0005220FFF780F840F23F115320FFF77BF8D3
:101FD0004FF427416020FFF776F801216120FFF7D9
:101FE00072F800216A20FFF76EF800218020FFF7C9
:101FF0006AF800218120FFF766F800218220FFF7B0
:1020000062F800218320FFF75EF800218420FFF7AB
:102010005AF800218520FFF756F810219020FFF78D
:1020200052F84FF4C0619220FFF74DF840F233119F
:102030000720FFF748F86FE58048808849F2203193
:1020400088427DD100210846FFF73DF84FF48071AA
:102050000120FFF738F84FF4E0610220FFF733F872
:1020600041F230010320FFF72EF800210420FFF792
:102070002AF840F202210820FFF725F80021092064
:10208000FFF721F800210A20FFF71DF801210C209D
:10209000FFF719F800210D20FFF715F800210F2098
:1020A000FFF711F83220FEF785FA40F20111072000
:1020B000FFF709F83220FEF77DFA4FF48651102021
:1020C000FFF701F807211120FEF7FDFF4FF488719B
:1020D0001220FEF7F8FF4FF430611320FEF7F3FFF4
:1020E00000212920FEF7EFFF44F210012B20FEF71C
:1020F000EAFF00215020FEF7E6FFEF215120FEF716
:10210000E2FF00215220FEF7DEFF40F23F11532094
:10211000FEF7D9FF4FF41C516020FEF7D4FF0121D8
:102120006120FEF7D0FF00216A20FEF7CCFF0021DE
:102130008020FEF7C8FF00218120FEF7C4FF00E0E9
:102140002EE000218220FEF7BEFF00218320FEF753
:10215000BAFF00218420FEF7B6FF00218520FEF79C
:10216000B2FF10219020FEF7AEFF00219220FEF773
:10217000AAFF01219320FEF7A6FF4FF48871952056
:10218000FEF7A1FF00219720FEF79DFF0021982078
:10219000FEF799FF40F273110720FEF794FFBBE4AE
:1021A0002648808849F2313188427DD141F21401BC
:1021B000E720FEF788FF4FF480710120FEF783FFD0
:1021C0004FF400710220FEF77EFF41F23801032038
:1021D000FEF779FF40F202210820FEF774FF00218C
:1021E0000920FEF770FF00210A20FEF76CFF002196
:1021F0000C20FEF768FF00210D20FEF764FF002190
:102200000F20FEF760FF00211020FEF75CFF072182
:102210001120FEF758FF00211220FEF754FF002185
:102220001320FEF750FFC820FEF7C4F941F2906179
:102230001020FEF748FF40F2272101E0F8010020BE
:102240001120FEF740FF3220FEF7B4F90C211220D6
:10225000FEF739FF3220FEF7ADF94FF4006113208D
:10226000FEF731FF11212920FEF72DFF0B212B2036
:10227000FEF729FF3220FEF79DF900212020FEF70E
:1022800022FF40F23F112120FEF71DFF00213020E8
:10229000FEF719FF4FF483713120FEF714FF002180
:1022A0003220FEF710FF00E067E04FF401713520A7
:1022B000FEF709FF41F20A613620FEF704FF40F203
:1022C00007713720FEF7FFFE4FF483713820FEF7C9
:1022D000FAFE40F207713920FEF7F5FE40F20241A6
:1022E0003C20FEF7F0FE40F60F413D20FEF7EBFEEE
:1022F00000215020FEF7E7FEEF215120FEF7E3FE1C
:1023000000215220FEF7DFFE40F23F115320FEF77E
:10231000DAFE4FF41C516020FEF7D5FE012161204A
:10232000FEF7D1FE00216A20FEF7CDFE00218020BD
:10233000FEF7C9FE00218120FEF7C5FE00218220A4
:10234000FEF7C1FE00218320FEF7BDFE00218420A0
:10235000FEF7B9FE00218520FEF7B5FE1021902082
:10236000FEF7B1FE4FF4C0619220FEF7ACFE40F2E2
:1023700033110720FEF7A7FE80E4FE48808845F26F
:10238000084188427ED14FF480710120FEF79BFE08
:102390004FF4E0610220FEF796FE41F23001032087
:1023A000FEF791FE00210420FEF78DFE40F207218A
:1023B0000820FEF788FE00210920FEF784FE002198
:1023C0000A20FEF780FE00210C20FEF77CFE002193
:1023D0000D20FEF778FE00210F20FEF774FE14207A
:1023E000FEF7E8F841F2B0611020FEF76CFE012123
:1023F0001120FEF768FE01211720FEF764FE4FF45E
:102400009C711220FEF75FFE4FF400611320FEF76F
:102410005AFE09212920FEF756FE09212A20FEF73F
:1024200052FE0021A420FEF74EFE00215020FEF7B0
:102430004AFEEF215120FEF746FE00215220FEF712
:1024400042FE40F23F115320FEF73DFE4FF41C5177
:102450006020FEF738FE01216120FEF734FE0021E6
:102460006A20FEF730FE00218020FEF72CFE0021BE
:102470008120FEF728FE00218220FEF724FE0021A5
:10248000832000E023E0FEF71EFE00218420FEF7FB
:102490001AFE00218520FEF716FE13219020FEF77C
:1024A00012FE00219220FEF70EFE03219320FEF77C
:1024B0000AFE4FF488719520FEF705FE40F2731175
:1024C0000720FEF700FE3220FEF774F8B8E4A948B2
:1024D000808841F2055188427ED100210720FEF715
:1024E000F2FD3220FEF766F84FF48E711220FEF7EF
:1024F000EAFD0121A420FEF7E6FD0F210820FEF7EA
:10250000E2FD08210A20FEF7DEFD08210D20FEF77E
:10251000DAFD40F207713020FEF7D5FD07213120AA
:10252000FEF7D1FD40F203613220FEF7CCFD4FF4FF
:10253000E0613320FEF7C7FD40F202213420FEF7B0
:10254000C2FD02213520FEF7BEFD41F60F71362097
:10255000FEF7B9FD40F207713720FEF7B4FD002108
:102560003820FEF7B0FD00213920FEF7ACFD40F227
:1025700007713A20FEF7A7FD00213B20FEF7A3FDDF
:1025800007213C20FEF79FFD00213D20FEF79BFD2B
:102590003220FEF70FF801210720FEF794FD0121FC
:1025A0001720FEF790FD3220FEF704F84FF4BD51DE
:1025B0001020FEF788FD40F217211120FEF783FD61
:1025C0004FF48F711220FEF77EFD4FF470611320DF
:1025D000FEF779FD002100E094E02A20FEF773FD6C
:1025E0000A212920FEF76FFD4FF49F711220FEF79C
:1025F0006AFD00215020FEF766FDEF215120FEF715
:1026000062FD00215220FEF75EFD40F23F11532093
:10261000FEF759FD4FF41C516020FEF754FD0121D7
:102620006120FEF750FD00216A20FEF74CFD0021DD
:102630008020FEF748FD00218120FEF744FD0021A7
:102640008220FEF740FD00218320FEF73CFD0021A3
:102650008420FEF738FD00218520FEF734FD13218C
:102660009020FEF730FD4FF440719220FEF72BFDD5
:1026700005219320FEF727FD00219520FEF723FD7D
:1026800000219720FEF71FFD00219820FEF71BFD7B
:102690004FF480710120FEF716FD4FF4E061022037
:1026A000FEF711FD41F238010320FEF70CFD002179
:1026B0000420FEF708FD00210C20FEF704FD002198
:1026C0000F20FEF700FD00212020FEF7FCFC00217A
:1026D0002120FEF7F8FC21210720FEF7F4FC14204E
:1026E000FDF768FF61210720FEF7EDFC1420FDF7E0
:1026F00061FF40F273110720FEF7E5FC1420FDF79F
:1027000059FF98E41B4880884BF2055188427DD1DF
:1027100000210846FEF7D7FC00210846FEF7D3FC4F
:1027200000210846FEF7CFFC00210846FEF7CBFC4F
:102730000121A420FEF7C7FC1420FDF73BFF4FF456
:102740001C516020FEF7BFFC40F202210820FEF77A
:10275000BAFC4FF405713020FEF7B5FC43F2157159
:102760003120FEF7B0FC40F204613220FEF7ABFCF2
:1027700002E00000F801002040F616613320FEF769
:10278000A2FC42F211213420FEF79DFC4FF4A85127
:102790003520FEF798FC48F207513620FEF793FCEF
:1027A00041F207413720FEF78EFC41F20341382009
:1027B000FEF789FC20213920FEF785FC1A219020A4
:1027C000FEF781FC00211020FEF77DFC072111207F
:1027D000FEF779FC00211220FEF775FC0021132082
:1027E000FEF771FC1420FDF7E5FE4FF4E6611020C2
:1027F000FEF769FC40F237111120FEF764FC14204B
:10280000FDF7D8FE4FF4DC71122000E088E0FEF7FF
:102810005AFC1420FDF7CEFE4FF470611320FEF732
:1028200052FC80212A20FEF74EFC48212920FEF789
:102830004AFC1420FDF7BEFE4FF480710120FEF724
:1028400042FC4FF4E0610220FEF73DFC41F238010A
:102850000320FEF738FC40F202210820FEF733FC8B
:1028600000210A20FEF72FFC00210C20FEF72BFC94
:1028700000210D20FEF727FC30210E20FEF723FC5F
:1028800000215020FEF71FFCEF215120FEF71BFC1A
:1028900000215220FEF717FC40F23F115320FEF7B3
:1028A00012FC4FF41C516020FEF70DFC0121612049
:1028B000FEF709FC00216A20FEF705FC112190209B
:1028C000FEF701FC4FF4C0619220FEF7FCFB40F2E2
:1028D00002419320FEF7F7FB02219420FEF7F3FB61
:1028E0001420FDF767FE01210720FEF7ECFB142002
:1028F000FDF760FE61210720FEF7E5FB40F2731152
:102900000720FEF7E0FB00212020FEF7DCFB002182
:102910002120FEF7D8FB22210020FEF7D4FB13E391
:10292000FE4880884CF2055188427CD1002108463F
:10293000FEF7C9FB00210846FEF7C5FB1420FDF792
:1029400039FE00210846FEF7BEFB00210846FEF7CF
:10295000BAFB00210846FEF7B6FB00210846FEF749
:10296000B2FB0121A420FEF7AEFB1420FDF722FEEE
:102970004FF41C516020FEF7A6FB40F6060108202C
:10298000FEF7A1FB40F203713020FEF79CFB012112
:102990003120FEF798FB04213220FEF794FB4FF420
:1029A00081713320FEF78FFB4FF440713420FEF726
:1029B0008AFB40F203113520FEF785FB1F213620EC
:1029C000FEF781FB40F203713720FEF77CFB01210B
:1029D0003820FEF778FB04213920FEF774FB15211F
:1029E0009020FEF770FB4FF482611020FEF76BFB26
:1029F00040F247211120FEF766FB4FF4DE711220F2
:102A0000FEF761FB4FF460611320FEF75CFB78205A
:102A1000FDF7D0FD4FF480710120FEF754FB4FF419
:102A20000071022000E052E0FEF74DFB41F2300160
:102A30000320FEF748FB08210A20FEF744FB002193
:102A40000C20FEF740FB20210E20FEF73CFB00216E
:102A50000F20FEF738FB00212020FEF734FB002179
:102A60002120FEF730FB3D212A20FEF72CFB14200D
:102A7000FDF7A0FD2D212920FEF725FB0021502088
:102A8000FEF721FB4DF2EF015120FEF71CFB002168
:102A90005220FEF718FB40F23F115320FEF713FBC4
:102AA00000216120FEF70FFB00216A20FEF70BFBDF
:102AB0004FF440719220FEF706FB05219320FEF7AC
:102AC00002FB4FF480710720FEF7FDFA3CE29348C9
:102AD000808848F6891188427DD101210020FEF7C7
:102AE000F2FA4AF6A4010320FEF7EDFA00210C20C9
:102AF000FEF7E9FA40F60C010D20FEF7E4FA4FF478
:102B00002C510E20FEF7DFFAB0211E20FEF7DBFA73
:102B100042F63F310120FEF7D6FA4FF4C0610220A1
:102B2000FEF7D1FA00211020FEF7CDFA46F2780127
:102B30001120FEF7C8FA00210520FEF7C4FA002193
:102B40000620FEF7C0FA4EF61C711620FEF7BBFAFF
:102B500003211720FEF7B7FA40F233210720FEF7D2
:102B6000B2FA00210B20FEF7AEFA00210F20FEF78B
:102B7000AAFA00214120FEF7A6FA00214220FEF722
:102B8000A2FA00214820FEF79EFA40F23F114920A8
:102B9000FEF799FA00214A20FEF795FA00214B2012
:102BA000FEF791FA4FF46F414420FEF78CFA0021B2
:102BB0004520FEF788FA40F23F114620FEF783FADF
:102BC00040F207713020FEF77EFA4FF40171312098
:102BD000FEF779FA00E03DE04FF401713220FEF794
:102BE00072FA40F202513320FEF76DFA40F20751BB
:102BF0003420FEF768FA4FF401713520FEF763FACE
:102C00004FF401713620FEF75EFA40F20251372090
:102C1000FEF759FA40F202313A20FEF754FA40F238
:102C200002313B20FEF74FFA00212320FEF74BFA3A
:102C300000212420FEF747FA4FF400412520FEF73B
:102C400042FA00214F20FEF73EFA00214E20FEF707
:102C50003AFA79E13148808844F2315188427CD196
:102C600001210020FEF72FFA0A20FDF7A3FC41F214
:102C700028611020FEF727FA0E211220FEF723FA12
:102C800040F639211320FEF71EFA0A20FDF792FCC8
:102C900040211120FEF717FA50211520FEF713FAF4
:102CA0000A20FDF787FC1E211220FEF70CFA0A20ED
:102CB000FDF780FC4FF4B1511020FEF704FA42F604
:102CC00039211320FEF7FFF90A20FDF773FC4FF4BA
:102CD00080710120FEF7F7F94FF440710220FEF7F2
:102CE000F2F941F238010320FEF7EDF940F202213A
:102CF0000820FEF7E8F908210A20FEF7E4F9002190
:102D00003020FEF7E0F940F202413120FEF7DBF916
:102D10004FF483713220FEF7D6F901E0F80100206C
:102D200040F203513320FEF7CEF94FF48271342084
:102D3000FEF7C9F940F201313520FEF7C4F940F23F
:102D400007713620FEF7BFF940F205313720FEF754
:102D5000BAF94FF40271382000E040E0FEF7B3F911
:102D600040F60B713920FEF7AEF902214120FEF743
:102D7000AAF94FF41C516020FEF7A5F9012161204A
:102D8000FEF7A1F94FF404719020FEF79CF94FF47F
:102D900085719220FEF797F904219320FEF793F9AD
:102DA0004FF48071A020FEF78EF901210720FEF775
:102DB0008AF921210720FEF786F923210720FEF753
:102DC00082F933210720FEF77EF940F23311072004
:102DD000FEF779F90021A020FEF775F9B4E0FA4872
:102DE000808844F235518842F8D130211520FEF711
:102DF0006AF910219A20FEF766F920211120FEF7CA
:102E000062F943F228411020FEF75DF902211220F9
:102E1000FEF759F941F238011320FEF754F9282042
:102E2000FDF7C8FB12210846FEF74DF92820FDF7F3
:102E3000C1FB43F220411020FEF745F943F238016F
:102E40001320FEF740F94620FDF7B4FB00213020A7
:102E5000FEF739F940F202413120FEF734F940F231
:102E600007313220FEF72FF94FF441713320FEF77E
:102E70002AF904213420FEF726F940F201413520D9
:102E8000FEF721F940F207713620FEF71CF940F2F7
:102E900005313720FEF717F94FF4C2613820FEF7ED
:102EA00012F94FF4C2613920FEF70DF94FF4807129
:102EB0000120FEF708F94FF440710220FEF703F9F4
:102EC00041F230010320FEF7FEF840F60801082029
:102ED000FEF7F9F808210A20FEF7F5F84FF41C5127
:102EE0006020FEF7F0F801216120FEF7ECF84FF4C6
:102EF0009F719020FEF7E7F84FF480719220FEF763
:102F0000E2F84FF480719320FEF7DDF84FF4405162
:102F1000A020FEF7D8F81021A320FEF7D4F8012155
:102F20000720FEF7D0F821210720FEF7CCF8232157
:102F30000720FEF7C8F833210720FEF7C4F840F257
:102F400033110720FEF7BFF80020FEF70DFB01202C
:102F50009E4908604FF6FF70FEF77DFB10BD2DE91E
:102F6000F04F05460E4617469846DDF824A04FF070
:102F7000000B781B401C1FFA80FB344613E02146EF
:102F80002846FEF7CDF8FEF7AEF84FF0000906E050
:102F90005046FEF790F809F101001FFA80F9D94573
:102FA000F6DB601C84B24445E9DDBDE8F08F2DE915
:102FB000F84F07460D4690469946DDF828B0A8EB35
:102FC0000700401C80B20090A9EB0500401C1FFACE
:102FD00080FA002415E0281981B23846FEF7A0F8DF
:102FE000FEF781F8002607E004FB0A603BF81000BA
:102FF00077490880701C86B200988642F4DB601C1A
:1030000084B25445E7DBBDE8F88F2DE9FF4F84B06B
:1030100081468A460020039002900698A0EB09059D
:103020000798A0EB0A06CDF80490CDF800A0002D7B
:1030300001DD012705E00DB9002702E04FF0FF3761
:103040006D42002E02DD4FF0010806E016B94FF088
:10305000000802E04FF0FF387642B54201DD2C4611
:1030600000E034464FF0000B21E0009A91B2019A43
:1030700090B2FEF72BFA039828440390029830444C
:1030800002900398A04205DD0398001B039001986D
:10309000384401900298A04205DD0298001B02907E
:1030A0000098404400900BF101001FFA80FB601C67
:1030B0008345DADD08B0BDE8F08FF0B504460D4673
:1030C00016461F462B46324629462046FFF79DFFEF
:1030D0003B46224629462046FFF797FF3B463246AD
:1030E00039462046FFF791FF3B4632462946304697
:1030F000FFF78BFFF0BD2DE9F04306460F469046E3
:10310000002445460320A0EB48093CE07A1B91B21D
:10311000321990B2FEF7DAF93A1B91B2721990B2F5
:10312000FEF7D4F93A1991B2721990B2FEF7CEF9BE
:103130007A1991B2321990B2FEF7C8F97A1991B2A0
:10314000321B90B2FEF7C2F93A1991B2721B90B2DB
:10315000FEF7BCF97A1B91B2321B90B2FEF7B6F9BA
:103160003A1B91B2721B90B2FEF7B0F9641CB9F130
:10317000000F03DAA000801D814404E0601B800082
:103180000A3081446D1EAC42C0DDBDE8F0832DE9FC
:10319000F84F05460F4690461E4600970D48B0F87A
:1031A0000090A8F1200000F0FF080A98002858D1EC
:1031B000002453E00C2E11D108EB4800064901EB26
:1031C000800010F804A00EE0F80100208081214268
:1031D0000008006C100000207A650008B94800EB78
:1031E000081010F804A04FF0000B31E00AF0800046
:1031F00018B1B548A0F8009003E0B4480088B2497F
:10320000088039462846FEF761F94FEA4A604FEADE
:10321000106A781C87B2AE480088A84204DCAA482D
:10322000A0F80090BDE8F88F0098381AB0420BD192
:10323000009F681C85B2A6480088A84203DCA2480B
:10324000A0F80090EEE706E00BF1010000F0FF0BA4
:10325000BBF1080FCADB00BF601CC4B2B442A9DBDB
:1032600044E0002440E00C2E07D108EB48009949C7
:1032700001EB800010F804A004E0924800EB081075
:1032800010F804A04FF0000B28E00AF0800018B1FD
:1032900039462846FEF71AF94FEA4A604FEA106AA3
:1032A000781C87B28A484088A84203DC8648A0F888
:1032B0000090B7E70098381AB0420BD1009F681C05
:1032C00085B283480088A84203DC7F48A0F80090BC
:1032D000A8E706E00BF1010000F0FF0BBBF1080FBF
:1032E000D3DB00BF601CC4B2B442BCDB7648A0F89C
:1032F000009000BF96E710B50246012000E0504361
:103300000B1EA1F10104E1B2F9D110BD2DE9FF4F6F
:1033100081B0074691461E460E9D4FF0000A0024DC
:1033200039E0301B401EC1B20A20FFF7E4FFB9FBB1
:10333000F0F00A21B0FBF1F201FB1208BAF1000F24
:1033400016D1701EA04213DDB8F1000F0ED100207F
:10335000AB4605EBDB71491001FB0471009088B2AC
:103360002B4620220299FFF712FF12E04FF0010ACC
:103370000020AB4605EBDB71491001FB04710090A6
:1033800088B208F13001CAB22B460299FFF7FFFE5E
:1033900000BF601CC4B2B442C3DB05B0BDE8F08F0F
:1033A0002DE9FF4F82B0064692461F46DDE90F48E1
:1033B0000020019000254DE0781B401EC1B20A207C
:1033C000FFF799FFBAFBF0F00A21B0FBF1F201FB25
:1033D0001209019850BB781EA84227DDB9F1000FF1
:1033E00022D108F0800078B108F00100A34604EB78
:1033F000DB71491001FB0561009088B22346302241
:103400000399FFF7C4FE0EE008F00100A34604EBA9
:10341000DB71491001FB0561009088B22346202230
:103420000399FFF7B4FE13E00120019008F00100BA
:10343000A34604EBDB71491001FB0561009088B2E3
:1034400009F13001CAB223460399FFF7A0FE00BF7D
:10345000681CC5B2BD42AFDB06B0BDE8F08F2DE9F8
:10346000F84704460D4690469946DDE9096704F0A1
:10347000FF0A08EB04001FFA80F809EB05001FFAA9
:1034800080F916E0444502DB5446A81985B24D4543
:1034900000DB14E0002000903A78334629462046AD
:1034A000FFF775FE304606EBD07104EB61018CB27C
:1034B0007F1C38787E2802DC38782028E2DA00BFCA
:1034C000BDE8F887EE690008100000201200002017
:1034D000F80100207A650008F0B503460C46154651
:1034E000642093FBF0F0C6B2642093FBF0F700FB7E
:1034F0001730C1B2132E02DD01F16400C1B20846DB
:10350000CF1701EB977701EBA707BAB2072092FB21
:10351000F0F700FB172082B25719601EDFF82CC4A9
:103520001CF80000384482B2CF1701EB9777BF1028
:10353000A1EB87071FB9032C01DA501E82B20720C6
:1035400092FBF0F700FB1720C0B2F0BD0146CA178E
:1035500001EB92729210A1EB820292B9642091FB6E
:10356000F0F200FB121050B94FF4C87091FBF0F26A
:1035700000FB121008B9012070470020FCE7012071
:10358000FAE70020F8E770B5002600240025F0488F
:1035900006883604001D00880644EE48B6FBF0F4A9
:1035A000ED480088A0423CD0EB490C8040F2B27557
:1035B00010E02846FFF7CAFF40B1B4F5B77F02D349
:1035C000A4F5B77404E0681C85B206E0A4F26D149B
:1035D000681C85B2B4F5B67FEBD800BFDF488580A4
:1035E000002516E0DD498888FFF7B0FF30B1012DD6
:1035F00004D11D2C01D31D3C09E00CE0D848405DEE
:10360000A04203D8D648405D241A00E003E0681CBD
:1036100085B21C2CE6D200BF681CD0498871601CA2
:10362000C871CC48B6FBF0F100FB11644FF4616047
:10363000B4FBF0F0C94908704FF46160B4FBF0F1DD
:1036400000FB11403C21B0FBF1F0C44948704FF43D
:103650006160B4FBF0F100FB11403C21B0FBF1F2E2
:1036600001FB1200BD4988700B46DA799979988878
:10367000FFF732FFB9490872002070BD2DE9F04F05
:1036800006460F4690469946DDE909AB002440F214
:10369000B270864203DB40F63300864202DD012031
:1036A000BDE8F08F40F2B2750AE02846FFF74EFF02
:1036B00010B1AC48044401E0AB480444681C85B236
:1036C000B542F2DB781EC7B2002510E0A448405D89
:1036D00040F2A321484304EBC0143046FFF736FF05
:1036E00018B1012D01D19B480444681C85B2BD422C
:1036F000ECDBA8F1010040F2A321484304EBC01425
:10370000C9EB4910C0EB092004EB0014CAEB0A1006
:1037100004EB80045C449548C06940F080509349B4
:10372000C8610846C06940F00060C8619048006800
:1037300040F480708E49086085481438008840F055
:1037400010008349143908808149091D0C80200C20
:10375000091F08807E481438008820F010007C493A
:103760001439088000BF7A481438008800F020001F
:103770000028F8D0FFF707FF002091E71CB50024D0
:103780007C48008845F2500188427DD07748C06966
:1037900040F080507549C8610846C06940F000603B
:1037A000C8617348006840F48070714908606F48D0
:1037B000006A40F480306D4908620846006A20F4CF
:1037C000803008620846006A40F00100086204E0A8
:1037D000601CC4B20A20FCF7EDFE6448006A00F0E9
:1037E000020008B9FA2CF3DBFA2C01DB01201CBD26
:1037F0005E48006A40F480705C4908620846006ACE
:1038000040F40040086200BF51481438008800F0BE
:1038100020000028F8D000BF4D481438008800F080
:1038200008000028F8D04A481838008840F0010005
:1038300047491839088000BF45481438008800F00F
:1038400020000028F8D042481438008840F01000CA
:103850003F49143908800020091D088047F6FF7091
:10386000091D0880372010210D230722CDE9001003
:10387000092140F2DC70FFF701FF35481438008859
:1038800020F01000324900E011E01439088000BF38
:103890002F481438008800F020000028F8D045F2A6
:1038A00050003449088034A002F09AFA1AE000BFB0
:1038B00027481438008800F008000028F8D0244871
:1038C0001838008840F0010021491839088000BFED
:1038D0001F481438008800F020000028F8D029A0E4
:1038E00002F07EFA0223032200210846FCF79AFE2A
:1038F000FFF749FE00207AE700B515481438008824
:1039000000F0010008B1FFF73EFE114814380088AE
:1039100000F0020038B10E481438008820F0020090
:103920000B49143908800A481438008840F6FA71A7
:10393000084007491439088000BF0548143800883A
:1039400000F020000028F8D000BD0000DE6F000865
:1039500018280040805101001400002002020020BD
:10396000EA6F00080085E2018033E10100100240A7
:1039700000700040046C00404649525354205449A2
:103980004D450A004F4B0A0010B52E48C06840F460
:10399000FE702C49C860FCF7FBFE10BD70B5002519
:1039A000002400202849086019E02848006818B160
:1039B000681CC5B2002408E0601CC4B2032C04DDFE
:1039C000012021490860002070BD1E20FCF7F2FD97
:1039D000642D04DB00201C4908600120F4E7E4E7C3
:1039E00010B501201A490860FFF7D8FF08B1FFF7AA
:1039F000CBFF10BD10B51348806940F00400114999
:103A000088610846806940F00100886111480068BB
:103A100020F00F000F4908600846006840F00800D9
:103A20000860022200210846FCF736FEFFF7B6FFC9
:103A300008B9FCF7ADFE0223062219461846FCF72A
:103A4000F1FD10BD0010024094812142000121428D
:103A500014040140000801409548806940F00800C6
:103A6000934988619348006820F47F409149086039
:103A70000846006840F44C5008608E4808300068E2
:103A800040F440608B4908310860704710B58948A0
:103A9000006820F47040874908600846006840F4D8
:103AA000405008600120844908608449C1F8A80199
:103AB0000420FCF763FD00207F4908600420FCF728
:103AC0005DFD00207D49C1F8A80110BD10B5794801
:103AD000006820F47040774908600846006840F4A8
:103AE0004050086000207449091F08607349C1F8FC
:103AF000AC010420FCF742FD01206F49091F08605A
:103B00006E49C1F8AC010420FCF738FD10BD10B5BA
:103B100000246848006820F4704066490860084640
:103B2000006840F400400860012063490860FCF729
:103B300025FD01206149C1F8A801FCF71FFD07E040
:103B4000601CC4B2FA2C03DDFFF7C0FF012010BDDA
:103B50005948803800680028F2D15749091F086089
:103B600000BFF4E710B500205349091F0860514811
:103B7000006820F470404F4908600846006840F42F
:103B80004050086000204D49C1F8AC010220FCF70C
:103B9000F5FC01204849091F08600220FCF7EEFCF3
:103BA00000204649C1F8A80110BD10B500204249C7
:103BB000091F08603F48006820F470403D490860D4
:103BC0000846006840F44050086001203B49C1F8B5
:103BD000AC010220FCF7D2FC01203749091F086024
:103BE0000220FCF7CBFC00203449C1F8A80110BD2D
:103BF00070B504462F48006820F470402D490860D5
:103C00000846006840F44050086000202A49091F17
:103C10000860002517E0E009274908606006040EE7
:103C20000220FCF7ABFC01202449C1F8A8010220C6
:103C3000FCF7A4FC00202049091F08600220FCF7C3
:103C40009DFC681CC5B2082DE5DB70BD70B505464E
:103C500000241848006820F470401649086008469F
:103C6000006840F400400860002617E00020124978
:103C7000091F08600220FCF781FC01200F49C1F8F0
:103C8000A8016006040E0C488038006808B1601C6A
:103C9000C4B20120FCF772FC701CC6B2082EE5DB32
:103CA00015B9FFF782FF01E0FFF75CFF204670BD0A
:103CB00000100240040C0140AC81214200802142EE
:103CC0000246002107E0481C81B24FF6FE70814297
:103CD00001DB002070474348008800F00200002804
:103CE000F1D04048001D0280002107E0481C81B24D
:103CF0004FF6FE70814201DB0020EBE73948008877
:103D000000F001000028F1D03648001D0088C0B244
:103D1000E0E700B53448806940F008003249886126
:103D20000846C06940F48040C86130480068C0F36C
:103D300013002E490860084600682D4908432B49A6
:103D400008602A480830006840F46040274908317C
:103D50000860244808380088224908390880084645
:103D6000008840F4007008800846008840F48070A5
:103D700008800846008840F0040008800846008853
:103D800008800846008840F0020008800846008845
:103D900040F0010008800846008840F018000880C4
:103DA0000846008808800846008840F040000880E7
:103DB000FF20FFF785FF00BD00F007000949083923
:103DC00009884FF6C7721140064A083A1180114619
:103DD000098841EAC00111801146098841F040017B
:103DE000118070470838004000100240040C014068
:103DF0000000B0BB10B5BD48806940F00800BB4969
:103E000088610846806940F480708861B84800681D
:103E100020F47020B64908600846006840F440303D
:103E20000860B3480830006840F48050B049083159
:103E30000860B048006820F07F40AE49086008463E
:103E4000006840F0605008600846406820F00F00AD
:103E500048600846406840F0030048600846C06873
:103E600040F4E070C860FFF754FFA348008820F0DA
:103E70004000A14908800846008820F00200088020
:103E80000846008820F0010008800846008840F0BD
:103E90004000088000209949086001209849C1F835
:103EA0009C0110BD2DE9F04107460D461646002045
:103EB0009249091F08603846FFF702FF8046002438
:103EC00005E0FF20FFF7FCFE2855601CC4B2B44299
:103ED000F7DB01208949091F08604046BDE8F081F1
:103EE0002DE9F04107460C46154600208349091F7D
:103EF00008603846FFF7E4FE8046002605E014F827
:103F0000010BFFF7DDFE701CC6B2AE42F7DB0120ED
:103F10007A49091F08604046BDE8F0811CB579A1C7
:103F200003C9CDE900010120FFF746FF05226946DC
:103F30003020FFF7D5FF052269461020FFF7B2FFBA
:103F4000002406E01DF80400A52800D003E0601C52
:103F5000C4B2052CF6DB00BF052C01D001201CBD2E
:103F60000020FCE770B505460C4600206349091F98
:103F700008602846FFF7A4FE06462046FFF7A0FE8D
:103F800001205F49C1F89C01304670BD70B5044600
:103F900000205A49091F08602046FFF791FEFF20C4
:103FA000FFF78EFE054601205549C1F89C012846C1
:103FB00070BD70B505460220FFF7FEFE00204F4998
:103FC000086020222946A020FFF78AFF01204C49E3
:103FD000C1F8A00100BF4948883800680028FAD11C
:103FE0000720FFF7D3FF044621462720FFF7BAFF3B
:103FF00004F0100028B1FF21E120FFF7B3FF1020EB
:1040000070BD04F0200008B12020F9E7FF20F7E799
:1040100070B504460220FFF7CFFE0720FFF7B6FF7A
:10402000054629462720FFF79DFF05F0400050B1C7
:10403000202221466120FFF735FFFF21E220FFF714
:1040400091FF002070BD0120FCE710B500202B4936
:10405000086005222D492A20FFF742FF0121212077
:10406000FFF780FF01212220FFF77CFF2821252078
:10407000FFF778FF20213120FFF774FF0F21262062
:10408000FFF770FF0F212020FFF76CFF01201C4974
:10409000C1F8A00110BD10B5002018490860052224
:1040A0001B493020FFF71CFF052218492A20FFF783
:1040B00017FF01212120FFF755FF01212220FFF7E3
:1040C00051FF1A212420FFF74DFF28212520FFF75B
:1040D00049FF0F212620FFF745FF0E212020FFF783
:1040E00041FF01200649C1F8A00110BD00100240A7
:1040F000040C01400020014000380040A00124428F
:1041000000002442A5A5A5A5A5000000FB6F00089E
:10411000F66F000810B504462CB90120F94909686A
:104120000882002010BDF849096808688047F548F2
:1041300000680A30F6E710B5F2480068C078F34925
:104140004978884213DCEF480068807878B9ED48F8
:104150000068808858B9EB480068C078E949096868
:104160008872E949096848688047002010BD02202C
:10417000FCE710B504462CB90120E2490968088221
:10418000002010BDE049096888688047DD48006864
:104190000C30F6E710B5DB4B1B68D978D94B1B68A0
:1041A0005879DB4B1B689A6990470446D5480068EC
:1041B000807AE8B13CB9D3480068007918B9D14891
:1041C0000068807808B1022010BD8CB9CE4909681A
:1041D000C8688047CB4800684079CA490968C872F6
:1041E000C8480068C078C749096808730020EBE731
:1041F0000220E9E710B504462CB90220C14909683C
:104200000882002010BD0020C2490880BD48006817
:10421000007800F07F00E0B9BA490968487A00F0F8
:10422000200129B1BB49097841F00201B94A117056
:1042300000F0400131B1B749097801F0FE01B54AFB
:10424000117005E0B349097841F00101B14A1170DC
:104250003AE0AC480068007800F07F00012801D106
:10426000AC48CFE7A7480068007800F07F0002283C
:1042700028D1A44A1268517901F00F0001F08002A0
:104280007AB1A54B03EB8002D2F8002C02F0300289
:10429000102A16D19F4A127842F001029D4B1A70E3
:1042A0000FE09D4B03EB8002D2F8002C02F4405249
:1042B000B2F5805F05D1974A127842F00102954B22
:1042C0001A7001E000209DE78F490968086980475E
:1042D000904897E72DE9F0478A480068007800F099
:1042E0007F08B8F1000F0AD186480068407A00F0D4
:1042F000DF008449096848720020BDE8F087B8F102
:10430000020F7DD17F480068408818B97D48006859
:10431000007908B10220F0E7DFF8F09179480068F1
:10432000477927F080052C4676480068407900F0F0
:10433000800038B1784901EB8400D0F8000C00F01F
:10434000300606E0744901EB8400D0F8000C00F45C
:10435000405699F80000A84204D91EB16948006887
:10436000807A08B90220C8E707F0800080B16A4966
:1043700001EB8400D0F8000C00F03000102843D18D
:10438000E0B201F031F8E0B2302100F0DAFE3BE0BB
:10439000614901EB8400D0F8000C00F44050B0F506
:1043A000805F31D1C4B95D4A92F82C10E0B201F0BF
:1043B000A6F8594A02EB8401D1F8001C4BF68F7223
:1043C00001EA020080F4805080F40050524A02EB6F
:1043D0008401C1F8000C17E0E0B200F0EEFF4E4A95
:1043E00002EB8401D1F8001C4BF68F7201EA020047
:1043F00080F4805080F40050474A02EB840100E0D2
:1044000008E0C1F8000C00BF3F49096848698047CF
:10441000002072E700BF02206FE72DE9F041394824
:104420000068467926F080073C46364800684079A7
:1044300000F0800038B1384901EB8400D0F8000C5E
:1044400000F0300506E0344901EB8400D0F8000CA0
:1044500000F440552D480078A04208D9294800684A
:10446000408820B91DB127480068807A10B9022021
:10447000BDE8F08106F0800080B1274A02EB84019C
:10448000D1F8001C48F6BF7201EA020080F010006B
:10449000214A02EB8401C1F8000C10E01E4A02EB35
:1044A0008401D1F8001C4BF68F7201EA020080F4FF
:1044B0008050194A02EB8401C1F8000C00BF124978
:1044C0000968886980470020D2E710B50D48006868
:1044D000407A40F020000B49096848720A4909688F
:1044E000C8698047002010BD10B502460548006825
:1044F000438AAAB98888C01A024C24682082002006
:1045000010BD0000200000202C00002090000020A2
:1045100024000020160000200050004094000020DD
:1045200008681844ECE72DE9F041FE48006800F106
:1045300010042688A068C0B1BEB1A588B54200D9D4
:104540003546A8B2A168884707462088401B2080CE
:10455000608828446080002000F0A3FF8046AAB253
:104560004146384600F088FD00BF208850B14FF426
:104570004050ED4908800021084600F09EFF3020A1
:10458000EA4908802088A188884204DB0320E549A5
:104590000968087218E02088002804DD0520E14938
:1045A0000968087210E0208870B90620DD490968A2
:1045B00008720021DE48006880B2801CDD4A42F8A3
:1045C00010103020D9490880BDE8F0812DE9F0476E
:1045D000D448006800F110052E88D2480068077A98
:1045E000D6B9042F18D1D448007801280FD1002162
:1045F000CF48006880B2801CCE4A42F810103020AC
:10460000CA49088000BF0020CB49087003E0072793
:104610001020C649088027E0AC88A64201D80420B3
:1046200000E002200746B44200D93446A0B2A9688F
:1046300088478046002000F029FF8146A2B2494603
:10464000404600F0FFFCA1B2002000F036FF2888B1
:10465000001B28806888204468803020B349088087
:104660000002B149088000BFAE4909680F72BDE879
:10467000F08770B50226AB4800684478A948006806
:10468000007800F07F0000284AD1092C03D1FFF701
:1046900052FD064665E0052C14D1A2480068C0789A
:1046A0007F280BDC9F480068807838B99D480068F7
:1046B000808818B99B480068807A08B108256BE0AB
:1046C00000264EE0032C14D196480068C0780128DB
:1046D0000DD194480068808848B992480068407AB3
:1046E00000F0200018B1FFF7F0FE064639E0022680
:1046F00037E0012C35D18B480068C07801280DD1F6
:1047000088480068808848B986480068407A00F088
:10471000200018B1FFF7DEFD064622E0022620E069
:1047200080480068007800F07F00012805D10B2C3C
:1047300017D1FFF72FFD064613E07A48006800788E
:1047400000F07F0002280BD1012C03D1FFF7C2FD3E
:10475000064606E0032C04D1FFF75FFE064600E0A4
:1047600002264EB1E0B2754A126851698847064682
:10477000032E01D109250FE00EB108250CE0062516
:1047800000216B48006880B2801C6A4A42F8101011
:1047900030206649088000BF624909680D7270BD0B
:1047A0002DE9F84F5F48006845780027BA46062D86
:1047B0001BD15C480068007800F07F00002813D10E
:1047C000584909688878012803D15C490968CF698C
:1047D0000AE0022803D1594909680F6A04E0032856
:1047E00002D1564909684F6A99E0002D67D14D48BA
:1047F00000684088002862D14A480068C0880228C2
:104800005DD1484800680079002858D145480068C3
:10481000007800F07F0030B942480068808810B905
:10482000AFF22F677BE03F480068007800F07F0020
:10483000012811D13B4909684879404909688A69CA
:104840000021904700286AD136480068807A002805
:1048500065D0AFF25F6762E032480068007800F030
:104860007F0002285BD12F480068407900F00F06D6
:104870002C480068407900F070092A4800684079A7
:1048800000F0800038B12E4901EB8600D0F8000C12
:1048900000F0300806E02A4901EB8600D0F8000C51
:1048A00000F4405827480078B04238D9B9F1000FD9
:1048B00035D1B8F1000F32D0AFF2C7672FE0082D25
:1048C00008D118480068007800F07F0038BBAFF2CC
:1048D000BB7724E00A2D22D112480068007800F04E
:1048E0007F0001281BD10F480068807AB8B10D48BD
:1048F0000068408898B90B480068007978B9094881
:104900000068C08801280AD10649096848790B491E
:1049100009688A690021904708B9AFF2A977EFB119
:10492000004811E02000002030000020320000206C
:10493000505C00400060004018000020240000206F
:1049400000500040900000200068A0F812A0AE487F
:10495000006887610020B84700240FE0AA4A126867
:104960005078AA4A1268116988470446032C05D179
:104970000920A54909680872BDE8F88FA2480068B7
:10498000008A4FF6FF71884204D109209E490968C8
:104990000872F1E7022C03D09B480068008A20B916
:1049A0000820994909680872E6E797480068007886
:1049B00000F08000E0B394480068C08800909248FE
:1049C0000068008A0099884204D98F4900980968D4
:1049D000088223E08C480068008A8B490968C988EE
:1049E00088421BDA88480068008A8849096891F87B
:1049F0002C10884203DA0020854908700EE08248B6
:104A00000068008A8149096891F82C1090FBF1F246
:104A100001FB120010B901207D4908707B48006835
:104A200090F82C10784800688182FFF7CFFD07E0EE
:104A3000FFE703207449096808720003754908807C
:104A400000BF99E710B5744890F82C10002000F0D2
:104A500056FD6D480068007A082805D140026D496E
:104A6000088010206D49088067480068007A09288E
:104A700001D1012010BD0020FCE708B5684800689E
:104A800080B2001D674931F8100080B201EB400090
:104A900000905D480068007A09282FD000980078BF
:104AA0005949096808700098401C009000980078E7
:104AB0005549096848700098401C00900098801C77
:104AC0000090009931F8020B009100F0B9FE4E49B8
:104AD000096848800098801C0090009931F8020B0A
:104AE000009100F0ADFE4849096888800098801C5C
:104AF00000900098008844490968C8800120424914
:104B00000968087240480068C08810B9FFF7B1FD15
:104B100001E0FFF745FEFFF795FF08BD30B5014600
:104B2000414B1A78002011E00306404C04EB9353EC
:104B3000D3F8003C48F68F742340C4B223430406E4
:104B40003A4D05EB9454C4F8003C401C9042EBD322
:104B500041F08003324C241F236030BD10B52A4839
:104B60000068047A022C01D0042C05D1FFF72EFD39
:104B700025480068047A1CE0062C19D122480068F8
:104B8000407805280ED120480068007800F07F00AA
:104B900040B91D490968C878FFF7C0FF2449096872
:104BA000086A80471949096888688047082400E036
:104BB0000824154909680C72FFF744FF10BD10B5B1
:104BC00011480068047A032C01D0052C05D1FFF7A9
:104BD000AAFC0D480068047A0EE0072C05D10B49A9
:104BE0000968C8688047082406E0022C01D0042C1C
:104BF00001D1082400E00824034909680C72FFF77A
:104C000021FF10BD7047000020000020240000207C
:104C10001800002030000020940000203200002006
:104C2000505C0040006000409000002000500040B8
:104C30002C00002010B508480849086002200968C7
:104C4000087207480749086007480849086005498D
:104C500009680868804710BD0C0200202000002071
:104C60009400002024000020C40000202C0000201C
:104C700010B5002473E147F6FF70EA490860EA487E
:104C8000008800F00F00E949087008460078002805
:104C90007ED1E4484438006800F44050E44908807C
:104CA000E0484438006800F03000E2490880DD49FF
:104CB000443909684BF68F7201EA020080F4005013
:104CC000D84944390860096848F6BF7201EA020011
:104CD00080F02000D34944390860D348008800F0B0
:104CE0001000002838D10846006848F60F710840C7
:104CF000CC4944390860FFF731FFCA494439096893
:104D00004BF68F7201EA0200C949098801F480510B
:104D100009B180F48050C649098801F4005109B1F5
:104D200080F40050BF4944390860096848F6BF72F2
:104D300001EA0200BF49097801F0100109B180F0D1
:104D40001000BC49097801F0200109B180F0200071
:104D5000B4494439086010BDB2484438006884B290
:104D600004F08000D8B3AF484438006848F60F71AB
:104D70000840AC4944390860FFF7F0FEA9494439BE
:104D800009684BF68F7201EA0200A949098800E020
:104D9000A6E001F4805109B180F48050A44909884B
:104DA00001F4005109B180F400509E494439086073
:104DB000096848F6BF7201EA02009E49097801F0CD
:104DC000100109B180F010009A49097801F0200122
:104DD00009B180F02000934944390860BBE7FFE740
:104DE00004F40060D8B38F4844380068C0F30E0064
:104DF00048F68F7108408B4944390860FFF73DFE43
:104E00008849443909684BF68F7201EA02008849E3
:104E1000098801F4805109B180F4805084490988DF
:104E200001F4005109B180F400507E494439086012
:104E3000096848F6BF7201EA02007E49097801F06C
:104E4000100109B180F010007A49097801F02001C1
:104E500009B180F020007349443908607BE7FFE71F
:104E600004F4004000287AD06E4844380068C0F34B
:104E70000E0048F68F7108406A4944390860FFF710
:104E80009EFE6849443909684BF68F7201EA0200B8
:104E90006749098801F4805109B180F48050644960
:104EA000098801F4005109B180F400505D4944398A
:104EB0000860096848F6BF7201EA02005D49097896
:104EC00001F0100109B180F010005A49097801F091
:104ED000200109B180F020005249443908603AE7C6
:104EE00052480078544901EB8000D0F8000C84B29D
:104EF00004F40040C0B14D48007801EB8000D0F8C8
:104F0000000CC0F30E0048F68F710840474909783D
:104F1000494A02EB8101C1F8000C44490978491E55
:104F2000464A52F82100804704F08000B8B13F485B
:104F30000078414901EB8000D0F8000C48F60F7171
:104F400008403A4909783C4A02EB8101C1F8000C5B
:104F500036490978491E3A4A52F8210080473148BB
:104F6000006880B23049088000F4004000287FF4D7
:104F700082AE00BFEFE610B5002449E047F6FF70AF
:104F8000284908602848008800F00F002749087069
:104F900008460078284901EB8000D0F8000C84B264
:104FA00004F40040C8B12148007801EB8000D0F83B
:104FB000000CC0F30E0048F68F7108401B490978B9
:104FC0001D4A02EB8101C1F8000C18490978491EFD
:104FD0001A4A52F8210080471AE004F08000B8B164
:104FE00012480078144901EB8000D0F8000C48F614
:104FF0000F7108400D4909780F4A02EB8101C1F891
:10500000000C0A490978491E0D4A52F821008047D0
:105010000448006880B20449088000F40040002879
:10502000ACD110BD445C0040500000201C000020AA
:1050300030000020320000200050004070000020AE
:1050400054000020F0B5144604F1010C4FEA6C073F
:10505000DFF848C00CEB41033D460AE00678401CEF
:1050600090F800C046EA0C2223F8022B9B1C401C3F
:105070006D1E002DF2D1F0BDF0B5561C7510074E17
:1050800006EB41042B4605E034F8047B20F8017B55
:10509000401C5B1E002BF7D1F0BD000000600040FB
:1050A000F74908607047F648006880B27047F449D5
:1050B000091D08607047F248001D006880B2704703
:1050C000EF480830006880B27047ED490C31086045
:1050D0007047EB480C30006880B270474FF6F871AB
:1050E0000140E74A103211607047E548103000680F
:1050F00080B27047E34B03EB8002C2F8001C70479C
:105100000146E04A02EB8100D0F8000C80B2704703
:1051100010B5DC4B03EB8002D2F8002C48F68F135D
:105120001A400A43D74C04EB8003C3F8002C10BD8F
:105130000146D44A02EB8100D0F8000C00F4C060B4
:10514000704710B5CF4C04EB8003D3F8003C48F611
:10515000BF7403EA040201F010030BB182F01002E5
:1051600001F020030BB182F02002C64C04EB800357
:10517000C3F8002C10BD10B5C24C04EB8003D3F86B
:10518000003C4BF68F7403EA040201F480530BB128
:1051900082F4805201F400530BB182F40052B94CF6
:1051A00004EB8003C3F8002C10BD30B503460C4659
:1051B0001846FFF7A5FF0546012C07D125F48050BE
:1051C000B04A02EB8301C1F8000C08E0022C06D1C2
:1051D00025F01000AB4A02EB8301C1F8000C30BD92
:1051E0000146A84A02EB8100D0F8000C00F0300024
:1051F00070470146A34A02EB8100D0F8000C00F48E
:10520000405070479F4B03EB8002D2F8002C48F6C9
:10521000BF7302EA030181F0100181F02001994B74
:1052200003EB8002C2F8001C7047964B03EB800230
:10523000D2F8002C4BF68F7302EA030181F48051FF
:1052400081F400518F4B03EB8002C2F8001C7047C1
:105250008C4A02EB8001D1F8001C41F4807148F6C1
:105260008F721140874B03EB8002C2F8001C70471D
:10527000844A02EB8001D1F8001C48F68F6211408D
:10528000804B03EB8002C2F8001C70477D4A02EBA2
:105290008001D1F8001C48F68F621140794B03EB76
:1052A0008002C2F8001C7047764A02EB8001D1F8F8
:1052B000001C41F4807148F68F721140714B03EB72
:1052C0008002C2F8001C70476E4A02EB8001D1F8E0
:1052D000001C41F4807148F68F721140694B03EB5A
:1052E0008002C2F8001C7047664A02EB8001D1F8C8
:1052F000001C48F68F621140624B03EB8002C2F83B
:10530000001C704701465F4A02EB8100D0F8000C98
:1053100000F03000102801D1012070470020FCE788
:105320000146584A02EB8100D0F8000C00F44050CE
:10533000B0F5805F01D1012070470020FCE7514AA1
:1053400002EB8001D1F8001CC1F30E0148F68F7208
:1053500011404C4B03EB8002C2F8001C7047494AD5
:1053600002EB8001D1F8001C48F60F721140454B4A
:1053700003EB8002C2F8001C7047424A02EB800136
:10538000D1F8001C48F68F72114041F480413D4B2A
:1053900003EB8002C2F8001C70473A4A02EB80011E
:1053A000D1F8001C48F68F72114041F04001354B96
:1053B00003EB8002C2F8001C7047324A02EB800106
:1053C000D1F8001C01F4804169B102EB8001D1F8F1
:1053D000001C48F68F72114041F48041294B03EBC9
:1053E0008002C2F8001C7047264A02EB8001D1F807
:1053F000001C01F0400169B102EB8001D1F8001CF2
:1054000048F68F72114041F040011E4B03EB8002C1
:10541000C2F8001C704710B51A4B03EB8002D2F89B
:10542000002C48F68F731A400A43164C04EB800395
:10543000C3F8002C10BD0146124A02EB8100D0F8DF
:10544000000C00F00F00704710B54A1052000C4BD2
:1054500010331B689BB203EBC0030B4C44F81320C2
:1054600010BD10B54A105300054A1032126892B2AE
:1054700002EBC002121D044C44F8123010BD0000B3
:10548000405C004000500040006000400146EF4892
:10549000006880B200EBC100ED4A32F8100080B223
:1054A00070470146E948006880B200EBC100001D6A
:1054B000E74A32F8100080B27047E44A126892B2AC
:1054C00002EBC002921CE24B43F8121070470246F6
:1054D0003E290BDD481101F01F030BB9431E98B2A2
:1054E0004FF4004343EA8023136007E0481001F0C3
:1054F00001030BB1431C98B283021360704710B5CF
:105500000246D248006880B200EBC200801DD04C39
:1055100004EB40033E290BDD481101F01F040CB9D8
:10552000441EA0B24FF4004444EA80241C6007E00B
:10553000481001F001040CB1441CA0B284021C60AC
:1055400010BD0146C148006880B200EBC100801C5C
:10555000BF4A32F81000C0F3090070470146BB484B
:10556000006880B200EBC100801DB94A32F810001B
:10557000C0F30900704730B54B105B00B34C246892
:10558000A4B204EBC004B24D45F8143053105C00D3
:10559000AE4B1B689BB203EBC0031B1D45F81340C9
:1055A00030BD10B54A105200A84B1B689BB203EBEC
:1055B000C003A74C44F8132010BD10B54A10530087
:1055C000A24A126892B202EBC002121DA04C44F82B
:1055D000123010BD01469D48006880B200EBC1004A
:1055E0009B4A32F8100080B2704701469748006825
:1055F00080B200EBC100001D954A32F8100080B265
:10560000704730B50B46012B1FD19049096889B20C
:1056100001EBC001891C8E4D05EB41043E2A0BDDD8
:10562000511102F01F050DB94D1EA9B24FF40045EE
:1056300045EA8125256007E0511002F001050DB112
:105640004D1CA9B28D0225600AE0022B08D17F49CA
:10565000096889B201EBC001891C7D4C44F8112016
:10566000012B1FD17949096889B201EBC001891D5D
:10567000774D05EB41043E2A0BDD511102F01F0569
:105680000DB94D1EA9B24FF4004545EA81252560AC
:1056900007E0511002F001050DB14D1CA9B28D02B9
:1056A00025600AE0022B08D16849096889B201EB3C
:1056B000C001891D664C44F8112030BD30B5034649
:1056C00001291FD16148006880B200EBC300801C33
:1056D0005F4D05EB40043E2A0BDD501102F01F0523
:1056E0000DB9451EA8B24FF4004545EA8025256056
:1056F00007E0501002F001050DB1451CA8B285026B
:1057000025600AE0022908D15048006880B200EB09
:10571000C300801C4E4C44F8102030BD30B5034609
:1057200001291FD14948006880B200EBC300801DE9
:10573000474D05EB40043E2A0BDD501102F01F05DA
:105740000DB9451EA8B24FF4004545EA80252560F5
:1057500007E0501002F001050DB1451CA8B285020A
:1057600025600AE0022908D13848006880B200EBC1
:10577000C300801D364C44F8102030BD014633482C
:10578000006880B200EBC100801C314A32F8100082
:10579000C0F30900704701462C48006880B200EB56
:1057A000C100801D2A4A32F81000C0F3090070477A
:1057B00001462648006880B200EBC100801D244AE3
:1057C00032F8100000F47C4008B1012070471F48F7
:1057D000006880B200EBC100801C1D4A32F8100046
:1057E000C0F3090008B10220F0E70020EEE710B591
:1057F00001290FD1174B03EB8002D2F8002C48F699
:105800008F731A4042F04002124C04EB8003C3F83D
:10581000002C10E002290ED10E4B03EB8002D2F8CF
:10582000002C48F68F731A4042F48042094C04EB76
:105830008003C3F8002C10BD024641EA02207047E5
:105840000146CAB20B1243EA02207047505C004086
:1058500000600040005000403948406820F480005B
:10586000374948600846C06940F40000C861704785
:1058700003203449086070473348817A19B1052103
:10588000304A116002E001212E4A1160704710B5C4
:105890002E48006840F480202C4908602B480830CE
:1058A000006840F48020294908310860022314224E
:1058B00000210120FAF7B6FE02232A220021084621
:1058C000FAF7B0FE10BD2DE9F84304460D46164622
:1058D0001F46002000908DF800408DF801508DF893
:1058E00002608DF803700120FFF7D0FD804604228E
:1058F00041466846FFF7A6FB0120FFF783FCBDE8A1
:10590000F88310B5124B18681B1D19681B1D1A6807
:10591000A8B1104CA070030A2371030CA371030EED
:105920002372A1720B0A23730B0CA3730B0E237447
:10593000A274130A2375130CA375130E237610BDDE
:1059400000100240280100200C0200200004014049
:10595000E8F7FF1F34000020704710B500F00AF888
:1059600010BD0348006840F480200149086070477A
:105970001404014010B537480068374908800846CC
:10598000008800F4806035490988084030B14FF63E
:10599000FF30304908603249486880472E48008807
:1059A00000F400502D490988084018B14DF6FF70E9
:1059B000284908602848008800F480502749098851
:1059C000084030B14EF6FF7022490860002000F018
:1059D000ABF92148008800F400602049098808409C
:1059E00060B12048007810B100F07EF902E002209A
:1059F00000F09AF94FF2FF701649086016480088C7
:105A000000F4007015490988084040B14FF6FF5076
:105A10001049086014480078401C134908700E486B
:105A2000008800F480700D490988084030B14FF6B5
:105A3000FF6008490860072000F076F906480088F2
:105A400000F4004005490988084008B1FFF710F943
:105A500010BD0000445C0040500000202A000020DF
:105A6000940000202C0100205200002010B5FFF708
:105A700048FF00207E490968887200F013F9002071
:105A80007C4908604FF43F407B4908800846008805
:105A90007849091F086000207849086010BD10B5DA
:105AA000002073490968887271490968C87274488E
:105AB000C0796F49096848720020FFF70FFB4FF467
:105AC00000710020FFF724FB10210020FFF739FBB5
:105AD00018210020FFF7C5FC58210020FFF7B4FC77
